:100000000C949B030C94B8030C94B8030C94B803A1
:100010000C94B8030C94B8030C94B8030C94B80374
:100020000C94B8030C94B8030C94371E0C94091F5D
:100030000C94B0160C94B8030C94B8030C94B80349
:100040000C94B8030C94B8030C94B8030C94B80344
:100050000C94B8030C9417170C94B8030C94B803C1
:100060000C94B8030C94B8030C94B8030C94B80324
:100070000C94B8030C94B8030C94B8030C94B80314
:100080000C94B8030C94B8030C94B8030C94B80304
:100090000C94B8030C94B8030C94B8030C94B803F4
:1000A0000C94B8030C94B8030C94B803520458048D
:1000B0005C045F04630467046B046F0474047804D5
:1000C0007C048004830487048B048F0493049804C5
:1000D000240D240D5E0D5E0DA10DC30D320F320FE8
:1000E000090E320FB00EB00E260F320F320F2D0F49
:1000F000BD0EBD0EBD0EBD0EBD0EBD0EBD0EBD0EA8
:10010000BD0EBD0EBD0EBD0EBD0EBD0EBD0EBD0E97
:10011000CF0EDF0EE60EED0EF70EC60FC60FD90F8F
:10012000D90FCF0FD90FD90FD90FC60FC60FD50FC3
:10013000D90FD90FD50F6E1F951F8320951F8320D0
:10014000DD1F002083205620652029001E001F008F
:1001500020002100220023000000000000002400F5
:100160002500260027002D002E0035004C002B0016
:1001700014001A0008001500170000000351015177
:1001800002511C0018000C00120013002F00300058
:100190003100E00004001600070009000A004D00CD
:1001A0000000520000004A000B000D000E000F007E
:1001B000330034002800E1001D001B000600190078
:1001C00005000000500051004F0000000000110029
:1001D0001000360037003800E500E000E200E300E0
:1001E0000000E3002A004C004E0000004B002800F5
:1001F00000002C00E600E700E6000451E4000100E6
:1002000001000100010001000100010000000000E8
:1002100000000100010001000100010001000100D7
:1002200001000100010001000100010001000000C7
:1002300001000100010001000100010001000100B6
:1002400001000100010001000100010001000100A6
:100250000100010000000100000001000100010098
:100260000100010001000100010001000100010086
:100270000100010001000000010001000100000078
:100280000000010001000100010001000100010067
:10029000E300E2000000E2002A004C000100000040
:1002A0000100010000000100E700E600E700055141
:1002B0000100010001000100010001000100010036
:1002C0000000000000000100010001000100010029
:1002D0000100010001000100010001000100010016
:1002E0000100000001000100010001000100010007
:1002F00001000100010001000100010001000100F6
:1003000001000100010001000000010000000100E7
:1003100001000100010001000100010001000100D5
:1003200001000100010001000100000001000100C6
:1003300001000000000001000100010001000100B7
:1003400001000100E300E2000000E2002A004C008E
:10035000010000000100010000000100E400E600CF
:10036000E70005510100010001000100010001004A
:100370000100010000000000000001000100010078
:100380000100010001000100010001000100010065
:100390000100010001000000010001000100010056
:1003A0000100010001000100010001000100010045
:1003B0000100010001000100010001000000010036
:1003C0000000010001000100010001000100010026
:1003D0000100010001000100010001000100000016
:1003E0000100010001000000000001000100010007
:1003F00001000100010001000100010000000100F6
:100400002C000100010000000100010000002A0092
:1004100001000100010001000100010001000100D4
:1004200001000100010001000000000000000100C7
:10043000010001000100A900AA0001000100010063
:1004400001000100010001000100000001000100A5
:1004500001000100010001000100AE0001000100E7
:100460000100010001000100010001000100010084
:100470000000010000000100010001000100010076
:100480000100010001000100010001000100010064
:100490000100000001000100010000000000010057
:1004A0000100BC00BB0001000100010001000100CF
:1004B0000000010001000100010000000100010036
:1004C0000000010001000100010001000100010025
:1004D0000100010001000100010001000000000016
:1004E00000000100010001000100A900AA000100B4
:1004F00001000100010001000100010001000000F5
:100500000100010001000100010001000100AE0036
:1005100001000100010001000100010001000100D3
:1005200001000100000001000000010001000100C5
:1005300001000100010001000100010001000100B3
:1005400001000100010000000100010001000000A5
:10055000000001000100AC00AB000100010001003F
:100560000100010000000100010001000100000085
:100570000100010000000100010001000100010074
:100580000100040330000000120345006C006C0001
:1005900069007000730069007300000018034300D5
:1005A00061006D00650072006F006E002000530056
:1005B00075006E0000000403090409026D000401C7
:1005C00000A0FA0904000001030101000921110142
:1005D00000012240000705810308000A0904010008
:1005E0000103010200092111010001224D0007054C
:1005F000820308000A090402000103000000092127
:10060000110100012236000705830308000A0904CE
:10061000030001030000000921110100012239003B
:10062000070584032000011201100100000008EDFD
:10063000FE15E101000102030105010906A1010502
:100640000719E029E71500250195087501810205C4
:100650000819012905950575019102950175039108
:10066000010507190029F71500250195F875018185
:1006700002C005010980A1018502160100260300C0
:100680001A81002A8300751095018100C0050C09AC
:1006900001A1018503160100269C021A01002A9C73
:1006A00002751095018100C005010902A10109012F
:1006B000A1000509190129051500250195057501F8
:1006C0008102950175038101050109300931158108
:1006D000257F95027508810609381581257F9501CA
:1006E00075088106050C0A38021581257F9501756C
:1006F000088106C0C005010906A101050719E02906
:10070000E71500250195087501810295017508819D
:1007100001050819012905950575019102950175D5
:100720000391010507190029FF150026FF00950612
:1007300075088100C00011241FBECFEFDAE0DEBFD4
:10074000CDBF11E0A0E0B1E0EEE3F2E402C005901D
:100750000D92AE33B107D9F722E0AEE3B1E001C0AC
:100760001D92A434B207E1F70E94631B0C941D2173
:100770000C94000081E0089581E008950C94BC037E
:100780000E94B40F2FEF84E39CE021508040904002
:10079000E1F700C000000C943D170F931F93CF9317
:1007A000DF938C01FC01C081D181CE010E94B01485
:1007B000BE010E946F05EC01B8010E94BE038823B0
:1007C00009F46CC1B801CE010E94D007882309F456
:1007D00065C1B801CE010E947309882309F45EC186
:1007E000C531FCE5DF0729F50E946315382FF801B4
:1007F00022818091000190910101222371F03A7AC7
:1008000021E009F420E020933E01222311F065E36A
:1008100001C069E20E943C1609C020913E012223DA
:1008200011F065E301C069E20E9447160E9430158D
:1008300035C1C6318CE5D80708F0A3C0C130ECE55E
:10084000DE0759F4F8018281882309F427C18091D9
:10085000000281608093000221C1C230FCE5DF0705
:1008600008F478C0F8018281882309F47BC00E94D3
:10087000B915811102C00E949F150E94CC1590E00D
:100880009093360280933502FE01E350FC45E2313D
:10089000F10520F4EA5AFF4F0C94CD2080913502E7
:1008A000816003C0809135028260809335024BC025
:1008B000809135028460F9CF8091350213C0809118
:1008C00035028061F2CF809135028062EECF809157
:1008D00035028064EACF809135028068E6CF80914E
:1008E000350284608860E1CF809135028E7FDDCF54
:1008F000809135028D7FD9CF809135028B7FD5CF06
:100900008091350213C0809135028F7ECECF8091C9
:1009100035028F7DCACF809135028F7BC6CF809103
:1009200035028F77C2CF809135028B7F877FBDCF15
:100930009091350297FB882780F921E0822780FB80
:1009400097F990933502809135020E94D0150E944C
:10095000B40FA4C0C115DC4561F081E08093430170
:1009600080934401C801DF91CF911F910F910C94A6
:10097000BA03F8018281882309F490C00E94C00361
:100980008DC0C63DECE5DE0759F5F801828188236C
:1009900061F0109244010E94E2169093420180930C
:1009A000410180E20E94D40C79C0809144018823E7
:1009B00021F080E20E94DB0C71C080914101909196
:1009C00042010E94EE16883C910598F780E20E9451
:1009D000DB0C88E20E94030C88E20E94A70C5EC038
:1009E000C73DFCE5DF0708F044C0C43D8CE5D807EF
:1009F00019F5F8018281882351F0109243010E9479
:100A0000E2169093400180933F0182E0CBCF80912A
:100A1000430181110FC080913F01909140010E94DC
:100A2000EE16883C910530F486E20E94030C86E2C3
:100A30000E94A70C82E0BECFC53DDC4509F08DCFFA
:100A4000F80182818111A5CF809144018111B1CF3C
:100A500080914101909142010E94EE16883C9105DF
:100A600008F0A7CF87E20E94030C87E20E94A70C40
:100A7000A0CFC93DFCE5DF0731F4F801828188236E
:100A800069F080E009C0CA3DDC4509F066CFF80195
:100A90008281882319F082E00E94FD1B80E0DF91B3
:100AA000CF911F910F9108950C941D080C9420086C
:100AB000282F2F7041F0822F90E02A3010F44D96AD
:100AC00008950697089587E290E0089508950C949C
:100AD00066050C94670580E090E00895089592E122
:100AE000799FF00111249AE5899FE00DF11D1124F1
:100AF000E60FF11DEE0FFF1FE65BFE4F859194910F
:100B00000895880F991F8E579A4FFC0185919491F3
:100B10000895CF93DF930E946F050E943007EC0188
:100B2000811520E5920708F040C0811530E4930755
:100B300008F01BC1883E910508F5803E910508F03C
:100B40008BC1883A910578F4853A910508F09DC0EB
:100B50008130910509F480C108F437C184309105D2
:100B600008F07AC132C18D3B910508F499C0803CF0
:100B7000910508F42AC1805C9109E9C0C11580E2A1
:100B8000D80758F4C11591E0D90708F065C1C03FF6
:100B9000D10508F41AC1D0655FC1C11520E3D207A1
:100BA00008F0D9C0CE019F70D2C0811535E59307FA
:100BB00008F043C0C11584E5D80708F0EDC0C115A1
:100BC00092E5D90708F5C11521E5D20708F0D0C094
:100BD0002C2F237081E090E002C0880F991F2A9586
:100BE000E2F79C689E01E4E036952795EA95E1F7E7
:100BF0002370922BCF70C695C69530E2C39FE0015B
:100C00001124C82BD92B28C18C2F869586959E013F
:100C100023703327C115D34508F0AFC090E2899FF8
:100C2000E001112481E090E002C0880F991F2A950D
:100C3000E2F7C82BD92BDC680FC1811529E5920793
:100C400080F4811538E5930708F0ABC0C11586E53F
:100C5000D80708F0BAC0CF71DD27DC2FCC27D062CF
:100C6000FBC0C1159AE5D90708F4A0C0CE01905683
:100C70008115904208F0A9C08D2F8F710E94AC079A
:100C8000DD27D0628F71D82BE7C0853A910509F432
:100C90009FC0863A910509F49EC0C3E8D0E4DCC049
:100CA000883A910509F49AC0893A910509F499C0E6
:100CB0008A3A910509F498C08B3A910509F497C0D6
:100CC0008C3A910509F496C08B3B910509F495C0C7
:100CD0008C3B910509F494C08D3A910509F493C0B9
:100CE000803B910509F492C08E3A910509F491C0B8
:100CF0008F3A910509F490C0813B910509F48FC0AA
:100D0000823B910509F48EC0833B910509F48DC0A7
:100D1000843B910509F48CC0853B910509F48BC097
:100D2000863B910509F48AC0873B910509F489C087
:100D3000883B910509F488C0893B910509F487C077
:100D40008A3B910509F086C0CAE2D6E485C00E94BC
:100D50008105EC0181C0CE019927D3FF03C0EC01CE
:100D6000D86C7AC0EC01D06C77C0DF70D06A74C0E8
:100D7000DC2FCC27C16FD06A6FC090E2899FE00161
:100D8000112481E090E002C0880F991F2A95E2F7B4
:100D9000C82BD92BDA6860C0DC2FCC27C46FD06A8F
:100DA0005BC0D82FCC27C06FD06A56C08C2F8F70F5
:100DB000806E90E0906A34E0D695C7953A95E1F759
:100DC000CF709C013C2BE90147C0C0E0D0E044C09B
:100DD000C1E8D0E441C0C2E8D0E43EC0C2EED4E4F1
:100DE0003BC0C9EED4E438C0CAEED4E435C0C5EB8C
:100DF000D4E432C0C6EBD4E42FC0C3EBD4E42CC09F
:100E0000C4EBD4E429C0C7EBD4E426C0CCECD4E4D2
:100E100023C0CDECD4E420C0C3E8D5E41DC0CAE8AB
:100E2000D5E41AC0C2E9D5E417C0C4E9D5E414C0BA
:100E3000C1E2D6E411C0C3E2D6E40EC0C4E2D6E4F7
:100E40000BC0C5E2D6E408C0C6E2D6E405C0C7E2DE
:100E5000D6E402C0C0E0D4E4CE01DF91CF91089582
:100E60008238910549F1B0F48133910509F459C0F4
:100E700048F48932910509F44FC08A32910509F48A
:100E800055C008958533910509F441C08933910512
:100E900099F00895833E910531F138F4803E910533
:100EA00091F0823E9105A9F00895863E910501F1E9
:100EB000873E910539F108952091350220FD3BC010
:100EC00021FD39C008958091350280FF34C089E347
:100ED00041C08091350282FF32C08091350284FF8B
:100EE0002CC080E037C08091350282FD28C0F5CF4C
:100EF0008091350283FF25C08091350284FDF1CFBA
:100F000087EE28C08091350283FD1BC0F5CF80910C
:100F1000350285FF18C019C08091350285FF15C0C4
:100F200012C08091350286FF12C013C08091350235
:100F300086FF0FC00CC080EE0DC083EE0BC082EEAA
:100F400009C086EE07C085E305C089E203C081E3DE
:100F500001C08AE290E008959091350292FF0DC0A1
:100F6000282F2871283019F4877F846006C0282F25
:100F70002471243011F48B7F886093FF0DC0282FDB
:100F80002871283119F4877E846106C0282F2471C6
:100F9000243111F48B7E886194FD877E0895089535
:100FA000CF93DF93EC01FB018281811102C081E0CC
:100FB00040C080915201811125C0C631DC45B9F78E
:100FC0000E94CF0781E0809352010E94E216909325
:100FD00051018093500110924501109247011092E7
:100FE0004601109249011092480110924B01109253
:100FF0004A0110924D0110924C0110924F01109233
:101000004E0116C080915001909151010E94EE1640
:101010008C32914060F680914501E82FF0E0EE0FB0
:10102000FF1FEA5BFE4FD183C0838F5F8093450132
:1010300080E0DF91CF91089508950C941C080895E5
:101040000C941F0885B7806885BF85B7806885BF09
:10105000A5E2B1E021E030E08D91E82FE295EF705C
:10106000F0E041A18F70B90102C0660F771F8A9529
:10107000E2F7CB01962F9095492341A392A1982B9B
:1010800092A371E0AA32B70739F7A3E1B1E021E0FA
:1010900030E08D91E82FE295EF70F0E041A18F7084
:1010A000B90102C0660F771F8A95E2F7CB01962F30
:1010B0009095492341A392A1982B92A371E0A53268
:1010C000B70739F7E7E6F1E0A3E5B1E01192119235
:1010D000119211921D921D921D921D9281E0EB378B
:1010E000F807A1F70C9454052F923F924F925F920C
:1010F0006F927F928F929F92AF92BF92CF92DF9228
:10110000EF92FF920F931F93CF93DF93CDB7DEB78C
:101110002A970FB6F894DEBF0FBECDBF05E211E0EF
:1011200083E591E09A87898722242394312CC12C6E
:10113000D12C7601C394A985BA85BC83AB838D91EC
:101140009D910D90BC91A02D8D839E83AF83B88718
:10115000E985FA851082118212821382D8013D91AD
:101160008D01E32FE295EF70F0E021A13F70410186
:1011700001C0880C3A95EAF7282921A322A1A82CBE
:10118000A0942A2122A3B0EABA95F1F783E191E075
:101190009A83898320E030E0A981BA814D91BA8396
:1011A000A983642F62956F7070E0DB0190966C915B
:1011B000A985BA854D905D906D907C904F70C1016E
:1011C00002C0880F991F4A95E2F7682359F4B701C6
:1011D000A601022E04C0440F551F661F771F0A94F4
:1011E000D2F703C040E050E0BA01442A552A662AEB
:1011F000772AA985BA854D925D926D927C9213975C
:101200002F5F3F4F2231310539F621A12A2121A339
:1012100022A1282922A31496BA87A987EB81FC81F1
:1012200040815181628173818D819E81AF81B885BA
:1012300084179507A607B70749F091E090937B01C3
:101240000E94E21690937D0180937C01A1E00A3216
:101250001A0709F070CF80917B018823E1F080911B
:101260007C0190917D010E94EE160697A0F0E3E5C7
:10127000F1E027E631E04191519161917191D901FD
:101280004D935D936D937D939D01B1E0E736FB0730
:1012900091F710927B010E94560581E02A960FB6C5
:1012A000F894DEBF0FBECDBFDF91CF911F910F919C
:1012B000FF90EF90DF90CF90BF90AF909F908F9076
:1012C0007F906F905F904F903F902F90089594E0A3
:1012D000899FF0011124E959FE4F6081718182815B
:1012E000938108950895CF93DF93EC01C13080E896
:1012F000D807C8F0FB0182818823A9F080917E0184
:10130000811109C08CE090E00E94E7200E949709BB
:1013100081E080937E010E949E09CE019F770E940A
:10132000660A0E941A0A81E0DF91CF9108958093A6
:101330007F01682F8CE090E00C94F520E091000193
:10134000F0910101808180932E0281FF03C081EE24
:101350000E94A70C80912E0285FF03C085EE0E949B
:10136000A70C80912E0280FF03C080EE0E94A70C84
:1013700080912E0284FF03C084EE0E94A70C80910E
:101380002E0282FF03C082EE0E94A70C80912E02E3
:1013900086FF03C086EE0E94A70C80912E0283FF79
:1013A00003C083EE0E94A70C80912E0287FF03C02A
:1013B00087EE0E94A70C80917F01823001F1A8F492
:1013C0008823C9F0813079F580EE0E94030C81EE0C
:1013D0000E94030C88E10E94030C88E10E94A70C84
:1013E00081EE0E94A70C80EE1CC0843081F0853015
:1013F000D1F486EE01C082EE0E94030C14C082EE8E
:101400000E94030C87E50E94030C87E50AC086EE64
:101410000E94030C86EE0E94A70C88E10E94030C38
:1014200088E10E94A70C8FE39CE90197F1F700C0C7
:101430000000089580917F01813049F030F08230C2
:1014400021F0853051F486EE06C082EE04C08CE2B5
:101450000E94030C8CE20E94A70C80912E0281FF57
:1014600003C081EE0E94030C80912E0285FF03C011
:1014700085EE0E94030C80912E0280FF03C080EE57
:101480000E94030C80912E0284FF03C084EE0E9410
:10149000030C80912E0282FF03C082EE0E94030C97
:1014A00080912E0286FF03C086EE0E94030C80917D
:1014B0002E0283FF03C083EE0E94030C80912E0254
:1014C00087FF03C087EE0C94030C0895FF920F93DF
:1014D0001F93CF93DF938C01CCE0D0E0C8010C2E9A
:1014E00002C0969587950A94E2F7282F2F70F22E66
:1014F000822F0E9458050E94030C8F2D0E945805D0
:101500000E94A70C2497CC3F8FEFD80739F7DF91C3
:10151000CF911F910F91FF90089590938501809333
:1015200084010895E0918401F0918501309721F0C4
:101530000190F081E02D099480E00895E09184010C
:10154000F0918501309721F00280F381E02D09941C
:101550000895E0918401F0918501309721F0048095
:10156000F581E02D09940895209182013091830145
:101570008217930771F09093830180938201E09129
:101580008401F0918501309721F00680F781E02DEC
:101590000994089520918001309181018217930769
:1015A00071F09093810180938001E0918401F0912A
:1015B0008501309721F00084F185E02D099408958C
:1015C00008950C94E00A81E008950E94D9160E94C3
:1015D00022080C946F174F925F926F927F929F92A6
:1015E000AF92BF92CF92DF92EF92FF920F931F9331
:1015F000CF93DF93CDB7DEB72E970FB6F894DEBF4B
:101600000FBECDBF0E9474080E94E30A811111C071
:101610008FEF89838A831B820E94E2168160782F74
:101620009D838C8349815A816B818D810E94CF0B70
:101630007DC037E8A32E31E0B32E00E010E0902EFD
:10164000802F0E946709F501C190D190E190F1903F
:101650005F01C626D726E826F926C114D104E10485
:10166000F10431F40F5F1F4F0530110541F7D0CF62
:101670002091000221FF0AC06B877C878D879E879F
:101680000E9472099E858D857C856B8520E030E007
:10169000422F26013701022E04C076946794579496
:1016A00047940A94D2F740FE3AC02E839F82C12C01
:1016B000D12C7601C39404C0CC0CDD1CEE1CFF1CA5
:1016C0004A95D2F7DC01CB018C219D21AE21BF21AF
:1016D00021E0892B8A2B8B2B09F420E028870E949C
:1016E000E2168160782F9A8789874E815F816885AD
:1016F0008A850E94CF0BF801EE0FFF1FEE0FFF1F30
:10170000E957FE4F80819181A281B3818C259D256F
:10171000AE25BF2580839183A283B38307C02F5F4B
:101720003F4F2231310509F0B3CF9CCF0E94011900
:10173000109186010E94920A1817D9F00E94920A0D
:10174000809386012E960FB6F894DEBF0FBECDBFF4
:10175000DF91CF911F910F91FF90EF90DF90CF908D
:10176000BF90AF909F907F906F905F904F900C9440
:1017700069052E960FB6F894DEBF0FBECDBFDF9180
:10178000CF911F910F91FF90EF90DF90CF90BF907E
:10179000AF909F907F906F905F904F900895CF9300
:1017A000DF93CDB7DEB72B970FB6F894DEBF0FBE31
:1017B000CDBF4F83588769877A878B87DE01119663
:1017C00086E0FD0111928A95E9F785E0FE013796E2
:1017D00001900D928A95E1F749815A816B817C8154
:1017E0008D819E810E948E122B960FB6F894DEBFDB
:1017F0000FBECDBFDF91CF910895FC018081918113
:101800000E94F0140895882309F4A0C09CEF980F5B
:10181000913A40F4682F80910001909101010E945B
:101820003C160DC090E2980F983058F4877091E004
:1018300001C0990F8A95EAF7892F0E9466150C94CA
:1018400030159BE5980F933070F4853A29F0863A6D
:1018500031F482E890E005C081E890E002C083E8BE
:1018600090E00C94B40A98E5980F953108F06EC09A
:10187000883A61F1893A69F18A3A71F18B3A79F1E2
:101880008C3A81F18B3B89F18C3B91F18D3A99F146
:10189000803BA1F18E3AA9F18F3AB1F1813BB9F1C8
:1018A000823BC1F1833BC9F1843BD1F1853BD9F146
:1018B000863BE1F1873BE9F1883BF1F1893BF9F1A6
:1018C0008A3B09F03FC08AE292E03EC082EE90E09F
:1018D0003BC089EE90E038C08AEE90E035C085EBE1
:1018E00090E032C086EB90E02FC083EB90E02CC0FC
:1018F00084EB90E029C087EB90E026C08CEC90E070
:1019000023C08DEC90E020C083E891E01DC08AE800
:1019100091E01AC082E991E017C084E991E014C017
:1019200081E292E011C083E292E00EC084E292E094
:101930000BC085E292E008C086E292E005C087E233
:1019400092E002C080E090E00C94CA0A08958823D7
:1019500051F19CEF980F913A40F4682F809100016B
:10196000909101010E9447160DC090E2980F9830A7
:1019700058F4877091E001C0990F8A95EAF7892F92
:101980000E946C150C9430159BE5980F933020F451
:1019900080E090E00C94B40A885A853120F480E00D
:1019A00090E00C94CA0A0895882321F00E946615DD
:1019B0000C9430150895882321F00E946C150C9426
:1019C000301508958F929F92BF92CF92DF92EF923F
:1019D000FF920F931F93CF93DF9300D0CDB7DEB765
:1019E0004C01472FFC01C580C2949FE0C922D280E0
:1019F000DD2031F079836A830E9483156A814981F1
:101A000049836A830E94291549816A81882389F064
:101A1000DD2079F080E2860F883058F082E00E9465
:101A200012150E942915BB24B394B82649816A81F6
:101A300001C0B12CE42EE2948FE0E822F12CF701F2
:101A4000E859FF4F0C94CD20842F807F142F1F70F6
:101A5000882311F01295107FDD20C1F0112309F4C5
:101A6000E0C180E2860F883010F0611105C0812F3F
:101A70006A830E94661504C0812F6A830E947615CE
:101A80006A816A830E9430156A81CBC1862F6A837E
:101A90000E94A70C6A81112309F4E4C180E2860F39
:101AA000883010F0611104C0812F0E946C1503C0B2
:101AB000812F0E947C150E943015D4C1842F807F15
:101AC000142F1F70803211F01295107F662319F0C9
:101AD0006130D9F026C0DD2079F0CC2049F0F1E06A
:101AE000CF1206C00E949C15812B0E949615BAC188
:101AF0000E949C15812B4AC1CC2021F021E0C21606
:101B000009F4B0C10E94991546C1DD2029F085E095
:101B10008C1508F4A7C139C194E09C1508F4A2C142
:101B20003AC1DD2051F0CC2009F42FC1F4018581A8
:101B300080FF77C18F70858328C1CC2009F42BC129
:101B400081C1242F26952695237030E0211531057B
:101B500021F02130310561F085C1DD2021F0862F93
:101B6000942F937002C080E090E00E94B40A8AC172
:101B7000DD2021F0862F942F937002C080E090E04A
:101B80000E94CA0A7FC1DD20F9F0653F51F0663F2F
:101B900071F0643FA9F480912F029091300281602E
:101BA0000BC080912F0290913002826005C080911D
:101BB0002F029091300284609093300280932F0224
:101BC000862F0E94091822C0653F51F0663F91F0B0
:101BD000643FC9F480912F02909130028E7F05C03E
:101BE00080912F02909130028D7F909330028093EC
:101BF0002F0209C020912F02309130022B7F3093A9
:101C0000300220932F02862F0E9471180E94F6182E
:101C100039C1842F837009F04EC0D1102FC1262FF7
:101C2000229526952770220F220F862F8F70C82E9F
:101C3000D12CE12CF12C022E04C0CC0CDD1CEE1CAE
:101C4000FF1C0A94D2F764FF10C06FE070E080E0E0
:101C500090E004C0660F771F881F991F2A95D2F75E
:101C6000609570958095909503C060E070E0CB0121
:101C7000242F26952695237030E02230310569F017
:101C80002330310589F06C297D298E299F29213047
:101C9000310571F00E94DD13F1C06C297D298E2978
:101CA0009F290E94EF13EAC00E94DD13C701B6010D
:101CB0000E94CB13E3C0DD2019F0842F817001C096
:101CC0008695882309F4DAC0262F22952695277059
:101CD000220F220F862F8F70C82ED12CE12CF12CD1
:101CE000022E04C0CC0CDD1CEE1CFF1C0A94D2F7A3
:101CF00064FF10C06FE070E080E090E004C0660F09
:101D0000771F881F991F2A95D2F760957095809547
:101D1000909503C060E070E0CB01242F26952695B6
:101D2000237030E02230310569F02330310589F02D
:101D30006C297D298E299F292130310571F00E945F
:101D40008B149CC06C297D298E299F290E949D148B
:101D500095C00E948B14C701B6010E9479148EC0F1
:101D6000062F10E0F801E05EF109E531F10508F019
:101D700054C0E858FF4F0C94CD20162F1F70842FAD
:101D80008F71DD2031F00E942414812F0E94D40C29
:101D900069C00E943F14812F0E94DB0C63C0DD20CC
:101DA00049F0F4E0FC1508F45DC0842F8F710E94A7
:101DB0005E1458C025E02C1508F454C0F6CFDD2081
:101DC00039F0842F8F710E9424144CC0DD20C9F398
:101DD000842F8F710E943F1445C0DD2029F0842F8D
:101DE0008F710E9415143EC00E9410143BC0DD206C
:101DF00051F0142F1F71812F0E94241463E0812F52
:101E00000E9409152FC081E00E94121581E08C15F7
:101E100048F582E00E94121525C0DD2031F0CC206B
:101E200081F2862F0E94030C1DC0CC2089F26933F9
:101E300049F49FEFE7EEF3E09150E040F040E1F726
:101E400000C00000862F0E94A70C0CC04F70C40178
:101E50000E946B050E943B1315C04F70C4010E9485
:101E60006E0510C028E0E216F10441F05CF09AE043
:101E7000E91AF108E2E0EE16F10420F40E94920A59
:101E80000E946905BB20F1F00E94051580FD1AC073
:101E9000F40112820E94FF140E942414C4010E94C3
:101EA000700F0E94FF140F900F90DF91CF911F9140
:101EB0000F91FF90EF90DF90CF90BF909F908F9009
:101EC0000C943F140F900F90DF91CF911F910F91C1
:101ED000FF90EF90DF90CF90BF909F908F900895EC
:101EE0000F931F93CF93DF93EC01288139818B816E
:101EF0009C81892B31F03F3F11F080E003C02F3FE0
:101F0000E1F781E0811113C0CE010E94CD03882347
:101F100071F0688179818A810E94FB148C010E9492
:101F2000AF140E94C813B801CE010E94E20CDF91E9
:101F3000CF911F910F9108950E9483150E949315D0
:101F400080910001909101010E9452160E9430156B
:101F50000E948A190E94F61880E090E00E94B40A5C
:101F600080E090E00C94CA0A0E9473150C949C0FB8
:101F70000E94F014E92FE295EF70F0E03297EE3016
:101F8000F105B8F4E357FF4F0C94CD20803F59F092
:101F900018F4803E70F407C0843F59F404C0803EBA
:101FA00010F0813F31F481E0089593FB882780F998
:101FB000089580E00895CF93DF9300D000D01F9262
:101FC000CDB7DEB70F900F900F900F900F90DF916D
:101FD000CF910895CF93DF9300D000D000D0CDB73C
:101FE000DEB726960FB6F894DEBF0FBECDBFDF91E9
:101FF000CF9108951F93CF93DF93C0919B0116E07B
:1020000080919C01C81799F0D0E01C9FF0011D9FA2
:10201000F00D1124E356FE4F40815181628173819E
:10202000848195810E94EA0F2196C770E9CFDF91E4
:10203000CF911F9108954091CD015091CE016091B3
:10204000CF017091D0018091D1019091D2010C9477
:10205000EA0FCF938091D20182958F7009F05FC013
:102060008091CF01882309F45AC020919B01A0914F
:102070009C016091CD017091CE018091D001909131
:10208000D10131E06F3F09F030E0B32FC6E02A17ED
:1020900009F445C0009721F07F3F21F44B2F03C086
:1020A00041E001C040E030E040FD35C0C29FF0019A
:1020B000C39FF00D1124E356FE4F418174132BC0D2
:1020C0004081641328C04281411125C0438154815D
:1020D0004817590710F441505109481B590B483C07
:1020E0005105C8F48091D2018F7080618093D20134
:1020F00086E0829FF001839FF00D1124EE55FE4F84
:1021000080818F70806180838DEC91E00E94700FE0
:10211000CF910C94FA0F2F5F3F4F2770B8CFCF911C
:102120000895CF92DF92EF92FF920F931F93CF9378
:10213000DF93CDB7DEB762970FB6F894DEBF0FBE60
:10214000CDBF8C0185E0F801DE011D9601900D9256
:102150008A95E1F7D8014C9111965C9111971296EE
:102160006C9112971396ED90FC9014977091CD019D
:10217000E091CE012091D0013091D101211531059E
:1021800031F0EF3F31F481E07F3F19F403C081E08B
:1021900001C080E0B82FB170CB2E80FD6BC1D09014
:1021A000CF01DD2009F4F5C0F091D201E216F3066B
:1021B00038F0C701821B930B883C910548F09DC005
:1021C000209530952E0D3F1D283C310508F095C017
:1021D0008F2F807F09F052C0E51314C0741312C012
:1021E000D62E61110FC0FF70F061F093D2010E94F2
:1021F0001B108DEC91E00E94700F8091D201F801CC
:1022000085837CC1EF2831F05F3F31F481E04F3F9F
:1022100019F403C081E001C080E080FD03C081E0CB
:10222000862701C080E0F82FF170FF2E80FF1CC0D0
:1022300080919B0120919C0136E0821709F438C1FE
:1022400090E0389FF001399FF00D1124E356FE4FC6
:102250007181571306C07081471303C072816713E1
:1022600003C001968770E9CFD62E662309F446C1D4
:102270008091D20181608093D20155C0E51308C0DE
:10228000741306C0611104C0D8011596FC93AEC04A
:102290004D875E878D859E856A8B0E94B80F6A89FF
:1022A000882329F1D62E662311F12091D201822FA5
:1022B00082958F7090E002970CF462C08091CD01FE
:1022C0009091CE0198878F831986FB86EA862C87AA
:1022D000CE01079653C0E51741F14D875E878D8586
:1022E0009E856A8B0E94B80F6A89811130C0C8012F
:1022F0000E94700FDD24D39401C18F2F807F59F786
:102300007E2DF98AE88A89890E94DB0F8DEC91E0A5
:102310000E94700FEDECF1E086E0DF011D928A95DE
:10232000E9F70E941B10D12CE9C07413D6CF6111BC
:10233000D4CFD8011596FC93C8010E94700FEDEC24
:10234000F1E086E0DF011D928A95E9F7D7C0D62E2D
:10235000662369F22091D201822F82958F7090E0DE
:10236000029774F08091CD019091CE019A83898378
:102370001B82FD82EC822E83CE0101960E94700F9B
:1023800086E0F801ADECB1E001900D928A95E1F79D
:102390008AC0E216F30628F0C701821B930B9C014A
:1023A00004C0209530952E0D3F1D283C310508F0C6
:1023B00053C0D62E662309F49ACFE5132CC07413AC
:1023C0002AC08091D20180FD1DC0982F92959F70E8
:1023D000C9F0D80115968C9315979F3039F09F5FFF
:1023E0009295907F8F70892B15968C93C8010E94CF
:1023F000700F86E0F801ADECB1E001900D928A9586
:10240000E1F753C086E0F801ADECB1E001900D9228
:102410008A95E1F773C04D875E878D859E850E9402
:10242000B80F882381F096E0F801ADECB1E001909F
:102430000D929A95E1F78A8B0E9429100E941B1039
:102440008A89D82E5BC08091D20181608093D201AD
:10245000C8010E94700F52C07E2DF98AE88A8989CE
:102460000E94DB0FEDECF1E086E0DF011D928A9522
:10247000E9F71BC0662309F43ACF4D875E878D8547
:102480009E850E94B80FD82E882309F430CF86E0AD
:10249000F801ADECB1E001900D928A95E1F78DEC79
:1024A00091E00E94FD0B0E9429100E941B1026C083
:1024B0004D875E878D859E850E94F014292F229579
:1024C0002F7030E0223031052CF49F7041F08111E3
:1024D00006C00CC0243031052CF49F7049F4805E96
:1024E000883020F0C8010E94700FCF2CDC2C06C071
:1024F000D80115969C91907F91F7F8CF8D2D62961B
:102500000FB6F894DEBF0FBECDBFDF91CF911F9104
:102510000F91FF90EF90DF90CF9008951F93CF938E
:10252000DF93CDB7DEB72C970FB6F894DEBF0FBEA2
:10253000CDBF4F83588769877A878B879C87CE0169
:1025400007960E9491108823C1F02F8138858A85D3
:102550009B85892B31F03F3F11F080E003C02F3F76
:10256000E1F781E0811147C04F81588569857A85FF
:102570008B859C850E94EA0F3EC086E0FE0137965F
:10258000DE01119601900D928A95E1F7FF81E885B1
:102590004A855B854115510531F0EF3F31F481E00B
:1025A000FF3F19F403C081E001C080E080FD23C03B
:1025B00020919C0130E0C9010196877099276091B4
:1025C0009B0170E086179707F1F1F983EA835D8339
:1025D0004C8396E0929FD001939FB00D1124A35697
:1025E000BE4FFE01319601900D929A95E1F78093CE
:1025F0009C010E94FA0F16E080919B0190919C0132
:10260000891779F1189FC001112483569E4F0E94AB
:102610009110882331F1E0919B011E9FF00111245C
:10262000E356FE4F4081518162817381848195819F
:102630000E94EA0F80919B0190E001968770992794
:1026400080939B01D9CF0E94B40F10929C011092ED
:102650009B01EDECF1E086E0DF011D928A95E9F740
:10266000CACF2C960FB6F894DEBF0FBECDBFDF9158
:10267000CF911F910895EF92FF920F931F93CF93E5
:10268000DF93FC01009709F46FC0F12CEE24E39472
:10269000EF0121968491843740F4843008F055C0CE
:1026A000813081F0823021F15FC0853709F447C065
:1026B000C0F19CE7980F903708F056C08F770E94C2
:1026C000A70C45C08F010E5F1F4FFE01849190E261
:1026D000980F983050F48770FE2D01C0FF0F8A9537
:1026E000EAF78F2F0E94861515C00E94030C14C0B4
:1026F0008F010E5F1F4FFE01849190E2980F98307A
:1027000068F48770FE2D01C0FF0F8A95EAF78F2FBE
:102710000E948C150E943015E80119C00E94A70C78
:10272000FBCFCF010296FE01C491CC2361F0EFE90B
:10273000FFE03197F1F700C00000C150F6CFCF01A4
:102740000296FE01F490EC0102C00E94030C8F2D52
:10275000882341F0EFE9FFE03197F1F700C0000076
:102760008150F6CFFE0194CFDF91CF911F910F9151
:10277000FF90EF90089508950E94BB136093D701D6
:102780007093D8018093D9019093DA010C949C0F37
:1027900008950C94BC130F931F930091D7011091CF
:1027A000D8012091D9013091DA01602B712B822B55
:1027B000932B1F910F910C94BC130F931F930091B7
:1027C000D7011091D8012091D9013091DA0160230D
:1027D0007123822393231F910F910C94BC130F93A9
:1027E0001F930091D7011091D8012091D901309108
:1027F000DA0160277127822793271F910F910C948C
:10280000BC1308950C9401140E9402146093D30128
:102810007093D4018093D5019093D6010C949C0FB2
:1028200060E070E0CB010C94041441E050E060E003
:1028300070E004C0440F551F661F771F8A95D2F7BA
:10284000CB01BA010C94041441E050E060E070E068
:1028500004C0440F551F661F771F8A95D2F78091D9
:10286000D3019091D401A091D501B091D601482B0C
:10287000592B6A2B7B2BCB01BA010C94041441E039
:1028800050E060E070E004C0440F551F661F771FE2
:102890008A95D2F740955095609570958091D301B7
:1028A0009091D401A091D501B091D601482359232C
:1028B0006A237B23CB01BA010C94041441E050E05D
:1028C00060E070E004C0440F551F661F771F8A95B3
:1028D000D2F78091D3019091D401A091D501B0910C
:1028E000D601482759276A277B27CB01BA010C94C8
:1028F00004140F931F930091D3011091D4012091E0
:10290000D5013091D601602B712B822B932B1F9117
:102910000F910C9404140F931F930091D301109105
:10292000D4012091D5013091D601602371238223F7
:1029300093231F910F910C9404140F931F930091F4
:10294000D3011091D4012091D5013091D601602797
:102950007127822793271F910F910C9404140895D7
:10296000CF92DF92EF92FF920F931F93CF93DF935B
:10297000EC01C090D701D090D801E090D901F0903F
:10298000DA018091D3019091D401A091D501B09149
:10299000D601C82AD92AEA2AFB2A0FE110E0B7019A
:1029A000A601002E04C076956795579547950A9421
:1029B000D2F740FD05C00150110988F780E007C03B
:1029C000BE01802F0E9489050197A9F3802FDF9116
:1029D000CF911F910F91FF90EF90DF90CF900895CE
:1029E000CF93DF93EC010E94B014BE010E948905D1
:1029F000DF91CF910895CB010E94F014089580914A
:102A0000DB0185958595859508958091DB0187701B
:102A1000089598E0899F90011124622B6093DB0157
:102A20000C9424144091DB01809584238093DB0176
:102A3000982F977069F450E0282F332727FD3095A1
:102A40004217530729F08595859585950C943F1479
:102A500008959091DB01977081E009F480E008957A
:102A6000E0910001F09101018091FF018083E091EC
:102A70000001F091010180819091FE01892B8083FA
:102A8000E0910001F091010180819091FD01892B7D
:102A900080839091DC01992381F0E0910001F09115
:102AA00001018081892B8083809100019091010137
:102AB0000E94D51581111092DC0180910001909146
:102AC00001010C949E0A8091FF0108959091FF01ED
:102AD000982B9093FF01089580959091FF01982382
:102AE0009093FF0108951092FF0108959091FE01C7
:102AF000982B9093FE01089580959091FE01982364
:102B00009093FE0108951092FE0108959091FD01A9
:102B1000982B9093FD01089580959091FD01982345
:102B20009093FD0108951092FD0108958093DC01BA
:102B300008951092DC0108958091DC0108956DEEF6
:102B40007EEF80E090E00E94072160E082E090E06C
:102B50000E94F52060E083E090E00E94F52060E0B4
:102B600084E090E00E94F52060E085E090E00C9425
:102B7000F52080E090E00E94EF2021E08D3E9E4F06
:102B800009F020E0822F089582E090E00C94E72085
:102B900083E090E00C94E72084E090E00C94E72040
:102BA000682F84E090E00C94F52020E030E040E0D5
:102BB000FC01E20FF31F518151114F5F2F5F3F4F17
:102BC0002F313105A9F7842F089520E030E04FEF31
:102BD000FC01E20FF31F5281561799F04F3F19F491
:102BE000511101C0422F2F5F3F4F2E31310581F728
:102BF0004F3F39F0FC01E40FF11D47FDFA95628368
:102C00000895089520E030E0FC01E20FF31F4281B7
:102C1000461301C012822F5F3F4F2E313105A1F7BD
:102C20000895262F2695269526952F3170F4FC01C0
:102C3000E20FF11D677021E030E0062E01C0220F87
:102C40000A94EAF78181822B81830895262F2695A5
:102C5000269526952F3178F4FC01E20FF11D67705F
:102C600021E030E0062E01C0220F0A94EAF72095F9
:102C7000818128232183089520911201222329F0A4
:102C80002091350227FD0C9411160C94E515209126
:102C90001201222329F02091350227FD0C942616DB
:102CA0000C94021620E030E0FC01E20FF31F1182C9
:102CB0002F5F3F4F2F313105B9F7089508950C94D8
:102CC0005E1680913B02843031F11092010220E4C3
:102CD00088E190E00FB6F894A895809360000FBE4D
:102CE0002093600080E00E9469050E945F1683B710
:102CF000817F846083BF83B7816083BF7894889528
:102D000083B78E7F83BF88E10FB6F894809360000D
:102D1000109260000FBE089508950895CF930E9409
:102D20008C160E9474080E948D16C0E08C2F0E94A1
:102D30006709672B682B692B29F4CF5FC530B1F782
:102D400080E001C081E0CF91089508950C94A5160C
:102D50000E94B40F0E94920A0E9469050C94A61664
:102D60001F920F920FB60F9211248F939F93AF93E0
:102D7000BF9380910102811113C080913102909123
:102D80003202A0913302B09134024196A11DB11DCF
:102D90008093310290933202A0933302B0933402B5
:102DA000BF91AF919F918F910F900FBE0F901F9089
:102DB000189582E084BD93E095BD9AEF97BD80930E
:102DC0006E0008952FB7F8948091310290913202ED
:102DD000A0913302B09134022FBF0895CF92DF92B9
:102DE000EF92FF920F931F932FB7F8944091310207
:102DF0005091320260913302709134022FBF6A0108
:102E00007B01EE24FF248C0120E030E0C016D106C7
:102E1000E206F30610F441505109481B590BCA0150
:102E20001F910F91FF90EF90DF90CF9008957894CD
:102E30001F920F920FB60F9211248F939F93AF930F
:102E4000BF938091310290913202A0913302B091F0
:102E500034020196A11DB11D80933102909332027C
:102E6000A0933302B0933402BF91AF919F918F91A1
:102E70000F900FBE0F901F901895F89481E08093EB
:102E8000E00080E28093D8001092C9008FE19EE4B8
:102E90000197F1F700C000001DBA109268001CBC39
:102EA00010BE1FBA10927A0010926E0010926F003E
:102EB00010927100109272001092C900ECEBF0E0D9
:102EC000108214B817B81AB81DB810BA108215B805
:102ED00018B81BB81EB811BA0C94003F08950E9490
:102EE000B915811102C00E949F150E94C4158093DC
:102EF00000020E94CC1590E0909336028093350238
:102F00000E94C815682F70E080E090E00C94C9130F
:102F10008091040280FF0BC06091050185E0689FED
:102F2000B001112475956795759567952AC081FF45
:102F300009C06091050185E0689FB0011124759575
:102F400067951FC082FF07C06091050185E0689FFB
:102F5000B001112416C0409105024423C9F06091CC
:102F60000401461788F72091050185E0289F90010C
:102F70001124429FC001439F900D112470E00E94D4
:102F8000B9206038710540F46115710539F002C04F
:102F900065E070E0862F08958FE7089581E0089539
:102FA0008091040280FF08C06091030170E0759574
:102FB00067957595679521C081FF06C060910301F3
:102FC00070E07595679519C082FF04C06091030198
:102FD00070E010C0809105028823C1F06091020169
:102FE0008617A0F790910301989FC001112470E00B
:102FF0000E94B9206038710528F46115710521F02F
:10300000862F08958FE7089581E0089561E070E0CC
:10301000F4CF803F21F40E948817819504C0813F3E
:1030200029F40E948817809308020895823F21F4B2
:103030000E948817819504C0833F29F40E94881755
:10304000809307020895893F19F40E94D01705C0A4
:103050008A3F31F40E94D017819580930902089528
:103060008B3F21F40E94D017819504C08C3F29F436
:103070000E94D01780930A020895843F21F4809122
:103080000602816017C0853F21F4809106028260AC
:1030900011C0863F21F48091060284600BC0873FF7
:1030A00021F480910602886005C0883F31F4809148
:1030B000060280618093060208958D3F21F480917D
:1030C000040281600BC08E3F21F480910402826073
:1030D00005C08F3F29F4809104028460809304022C
:1030E0000895803F39F48091080287FF6CC01092E8
:1030F000080269C0813F29F4809108021816BCF3C8
:1031000062C090910702823F29F497FF5CC0109241
:10311000070259C0833F19F41916CCF354C0893FF4
:1031200041F48091090218160CF04DC0109209026A
:103130004AC08A3F29F48091090287FF44C0F6CF34
:103140008B3F39F480910A0287FF3DC010920A023A
:103150003AC08C3F29F480910A021816BCF333C0A0
:10316000843F21F4809106028E7F17C0853F21F4B1
:10317000809106028D7F11C0863F21F48091060266
:103180008B7F0BC0873F21F480910602877F05C0AB
:10319000883F31F4809106028F7E8093060213C02F
:1031A0008D3F21F4809104028E7F0BC08E3F21F46D
:1031B000809104028D7F05C08F3F29F48091040225
:1031C0008B7F809304028091070281110EC0809151
:1031D000080281110AC080910902811106C0809104
:1031E0000A02811102C010920502089586E092E061
:1031F0000E94A90A0E94E2169093030280930202A1
:1032000008951F93CF93DF93809102029091030260
:103210000E94EE1640910502442321F02091060100
:1032200030E006C0209107015AE0259F900111244B
:103230008217930708F46AC0809107021091080270
:10324000D0910902C0910A02811107C0111105C075
:10325000D11103C0CC2309F459C04F3F19F04F5F7F
:1032600040930502181624F40E94881780930702E1
:103270008091070287FF05C00E948817819580937F
:103280000702111624F40E94881780930802809187
:10329000080287FF05C00E94881781958093080265
:1032A00020910702222379F040910802442359F02B
:1032B00055EB250390011124309307024503C0010B
:1032C0001124909308021D1624F40E94D0178093B5
:1032D00009028091090287FF05C00E94D0178195DD
:1032E000809309021C1624F40E94D01780930A02CE
:1032F00080910A0287FF05C00E94D01781958093B4
:103300000A02DF91CF911F910C94F618DF91CF91B3
:103310001F910895E6E0F2E085E0DF011D928A95B5
:10332000E9F71092050210920402089580912B0291
:1033300008950F931F93CF93DF9300D01F92CDB7C3
:10334000DEB78C010E940D1C823011F0843019F51B
:1033500083E089831B830A838093E9008FEF909138
:10336000E800815095FD06C095ED9A95F1F70000B3
:103370008111F5CF8091E80085FF0DC040E050E05D
:1033800063E070E0CE0101960E942A1C8091E80063
:103390008E778093E8000F900F900F90DF91CF9180
:1033A0001F910F910895CF93DF9300D01F92CDB757
:1033B000DEB720913B02243031F522E0298380588A
:1033C00091099B838A8383E08093E9008FEF90913A
:1033D000E800815095FD06C095ED9A95F1F7000043
:1033E0008111F5CF8091E80085FF0DC040E050E0ED
:1033F00063E070E0CE0101960E942A1C8091E800F3
:103400008E778093E8000F900F900F90DF91CF910F
:103410000895CF93DF93EC010E940D1C823011F0D0
:103420008430F9F482E08093E9008FEF9091E80016
:10343000815095FD06C095ED9A95F1F70000811138
:10344000F5CF8091E80085FF0CC040E050E065E0DA
:1034500070E0CE010E942A1C8091E8008E77809354
:10346000E800DF91CF910895CF93DF93EC010E94A4
:103470000D1C823019F0843009F047C08091120190
:103480008823E1F08091350287FF18C084E08093A3
:10349000E9008FEF9091E800815095FD06C095E11D
:1034A0009A95F1F700008111F5CF8091E80085FF32
:1034B0002CC040E050E060E270E017C081E08093F3
:1034C000E9008FEF9091E800815095FD06C095EDE1
:1034D0009A95F1F700008111F5CF8091E80085FF02
:1034E00014C040E050E068E070E0CE010E942A1C69
:1034F0008091E8008E778093E80080E2FE01ABE0E7
:10350000B2E001900D928A95E1F7DF91CF91089595
:1035100080913A02811109C00E94BC1D0E94191EAF
:103520008091E20084608093E200089510923A0254
:103530000895089508950C94A81642E061EC81E086
:103540000E94361D42E061EC82E00E94361D42E09E
:1035500061EC83E00E94361D42E261EC84E00C9451
:10356000361D80913D02833009F455C030F481301E
:1035700071F0823009F48EC008958A3009F47AC05F
:103580008B3009F460C0893009F09CC020C0809164
:103590003C02813A09F096C08091E800877F8093D1
:1035A000E8008091400290914102892B21F060E077
:1035B00080E090E003C060E28BE092E070E00E9467
:1035C000731C8091E8008B778093E80008958091C8
:1035D0003C02813209F076C0809140029091410214
:1035E000009719F0039709F06DC08091E800877F7C
:1035F0008093E8008091E80082FD05C080913B0245
:103600008111F8CF5FC08091F10080932B028091EF
:10361000E8008B7753C080913C02813A09F052C098
:103620008091400290914102892B09F04BC080911A
:10363000E800877F8093E8008091E80080FFFCCF5E
:103640008091120136C080913C028132D9F580917F
:10365000400290914102892BA9F58091E800877F73
:103660008093E8000E946B1D80913E0280931201BE
:103670000C94B40F80913C02813221F58091E800D6
:10368000877F8093E8000E946B1D80913F028093AA
:103690002C02089580913C02813AA1F48091E800C7
:1036A000877F8093E8008091E80080FFFCCF8091C5
:1036B0002C028093F1008091E8008E778093E800DF
:1036C0000C946B1D089584B7877F84BF88E10FB683
:1036D000F89480936000109260000FBE80E88093A1
:1036E0006100109261000E94E10A0E94BC1D0E94CC
:1036F000191E8091E20084608093E20078940E9419
:103700009C200E94E50A88E091E00E948D0A809149
:103710003B02853069F40E9461168091390288234A
:10372000B1F30E948E16882391F30E94141CEFCFF0
:103730000E94EB0AECCF0C949D1B292F33272330DA
:103740003105A9F06CF42130310509F448C022306C
:10375000310509F049C08DE690E02AEB35E048C01C
:1037600021323105F9F02232310549F13DC0992766
:103770008130910571F02CF4892BB1F5E6EBF5E081
:103780000DC08230910541F0039771F5E2E8F5E054
:1037900005C0ECE9F5E002C0E8E8F5E0849190E0CE
:1037A0009F0126C064307105F8F4FB01EE0FFF1F86
:1037B000EA5CFE4F2081318189E090E019C06430DD
:1037C000710590F4FB01EE0FFF1FE25DFE4F2081BB
:1037D0003181FB01E65DFE4F808190E009C082E10E
:1037E00090E027E236E004C080E090E020E030E0A6
:1037F000FA013183208308950895CF93C82F0E9442
:10380000FC1BC0932D02CF91089580913B02843020
:1038100011F482E0089581E0089580912D028111D4
:1038200002C00C94051C089580E189BD82E189BD28
:1038300009B400FEFDCF8091D8008F7D8093D80021
:103840008091E00082608093E0008091E00081FD43
:10385000FCCF0895CF92DF92EF92FF920F931F93C8
:10386000CF93DF937C018B01EA010E948C1D8111B3
:1038700031C0209731F088819981081B190BE80E1F
:10388000F91EC12CD12C0115110519F18091E80008
:1038900085FD14C08091E8008E778093E800209722
:1038A00041F0888199818C0D9D1D9983888385E0E5
:1038B00011C00E948C1D882331F30CC0F701819147
:1038C0007F018093F10001501109FFEFCF1ADF0A49
:1038D000DACF80E0DF91CF911F910F91FF90EF90B1
:1038E000DF90CF9008952091420230914302261735
:1038F000370748F06115710539F42091E8002E77FB
:103900002093E80001C0B901FC0120E061157105B8
:10391000B9F180913B02882309F440C0853009F455
:103920003FC08091E80083FD3DC08091E80082FFA8
:1039300006C08091E80082FF26C080E00895809153
:10394000E80080FFE3CF2091F3008091F20090E047
:10395000922B6115710551F08830910538F4219151
:103960002093F100615071090196F3CF21E008978F
:1039700009F020E08091E8008E778093E800C6CFC0
:103980002111C7CFD6CF80913B02882339F08530F3
:1039900039F08091E80083FFCCCF04C082E0089525
:1039A00083E0089581E0089520914202309143021E
:1039B0002617370748F06115710539F42091E800A2
:1039C0002E772093E80001C0B901FC0120E06115C9
:1039D0007105C1F180913B02882309F441C0853013
:1039E00009F440C08091E80083FD3EC08091E8006A
:1039F00082FF06C08091E80082FF27C080E0089522
:103A00008091E80080FFE3CF2091F3008091F200E5
:103A100090E0922B6115710559F08830910540F4C2
:103A200024912093F1003196615071090196F2CFF3
:103A300021E0089709F020E08091E8008E778093DC
:103A4000E800C5CF2111C6CFD5CF80913B02882396
:103A500039F0853039F08091E80083FFCBCF04C086
:103A600082E0089583E0089581E00895982F9730CB
:103A700058F59093E900981739F07091EC00209177
:103A8000ED005091F00003C0242F762F50E021FF6D
:103A900019C03091EB003E7F3093EB003091ED0088
:103AA0003D7F3093ED003091EB0031603093EB00BF
:103AB0007093EC002093ED005093F0002091EE0005
:103AC00027FF07C09F5FD3CF8F708093E90081E00D
:103AD000089580E0089580913C0287FD05C08091A3
:103AE000E80080FF0EC012C08091E80082FD05C092
:103AF00080913B028111F8CF08958091E8008B7787
:103B000008C080913B028111EACF08958091E800BE
:103B10008E778093E80008958091E4009091E5000D
:103B200045E62091EC0020FF21C02091E80020FD17
:103B300021C020913B02222389F0253089F0209179
:103B4000EB0025FD0FC02091E4003091E50028171F
:103B5000390739F3415041F0C901E3CF82E00895BC
:103B600083E0089581E0089584E008952091E800BD
:103B700022FFDFCF80E008950E942A1E0E94321E9D
:103B8000E0EEF0E0808181608083E8EDF0E080810C
:103B90008F77808319BCA7EDB0E08C918E7F8C93DA
:103BA00080818F7E808310923A0208950F931F9335
:103BB000CF93DF930E942A1E0E94321EC8EDD0E0F0
:103BC00088818F77888388818068888388818F7DCA
:103BD000888319BC10923B0210923702109239026E
:103BE0001092380200EE10E0F80180818B7F808314
:103BF00088818160888342E060E080E00E94361D19
:103C0000E1EEF0E080818E7F8083E2EEF0E0808163
:103C100081608083808188608083F80180818E7FCD
:103C20008083888180618883DF91CF911F910F917C
:103C30000895E8EDF0E080818F7E8083E7EDF0E08D
:103C400080818160808384E082BF81E080933A023A
:103C50000C94D61DE8EDF0E080818E7F8083109279
:103C6000E20008951092DA001092E10008951F9288
:103C70000F920FB60F9211242F933F934F935F93A0
:103C80006F937F938F939F93AF93BF93EF93FF9324
:103C90008091E10082FF0BC08091E20082FF07C0AB
:103CA0008091E1008B7F8093E1000E949B208091B6
:103CB000DA0080FF1FC08091D80080FF1BC0809178
:103CC000DA008E7F8093DA008091D90080FF0DC0EA
:103CD00080E189BD82E189BD09B400FEFDCF81E0AC
:103CE00080933B020E94881A05C019BC10923B02C7
:103CF0000E94961A8091E10080FF19C08091E20035
:103D000080FF15C08091E2008E7F8093E200809159
:103D1000E20080618093E2008091D800806280930D
:103D2000D80019BC85E080933B020E949A1A8091CA
:103D3000E10084FF30C08091E20084FF2CC080E16C
:103D400089BD82E189BD09B400FEFDCF8091D80014
:103D50008F7D8093D8008091E1008F7E8093E10079
:103D60008091E2008F7E8093E2008091E20081608A
:103D70008093E20080913702882311F084E007C02D
:103D80008091E30087FF02C083E001C081E080935F
:103D90003B020E949B1A8091E10083FF29C0809121
:103DA000E20083FF25C08091E100877F8093E100DE
:103DB00082E080933B02109237028091E1008E7F77
:103DC0008093E1008091E2008E7F8093E2008091F9
:103DD000E20080618093E20042E060E080E00E94C7
:103DE000361D8091F00088608093F0000E94991A3F
:103DF000FF91EF91BF91AF919F918F917F916F91C3
:103E00005F914F913F912F910F900FBE0F901F9098
:103E100018951F920F920FB60F9211242F933F9374
:103E20004F935F936F937F938F939F93AF93BF93C2
:103E3000CF93EF93FF93C091E900CF708091EC0096
:103E40001092E9008091F000877F8093F0007894D1
:103E50000E94451F1092E9008091F00088608093D5
:103E6000F000C093E900FF91EF91CF91BF91AF9126
:103E70009F918F917F916F915F914F913F912F9182
:103E80000F900FBE0F901F9018951F93CF93DF9345
:103E9000CDB7DEB7AA970FB6F894DEBF0FBECDBF81
:103EA000ECE3F2E08091F100819322E0E434F20748
:103EB000C9F70E94B11A8091E80083FF24C12091C4
:103EC0003C0230913D02832F90E08A30910508F04A
:103ED0001AC1FC01E556FF4F0C94CD20203821F08B
:103EE000223809F010C108C080913802909139023F
:103EF000992389F082600FC0809140028F708730D3
:103F000008F001C18093E9008091EB0085FB8827D0
:103F100080F91092E9009091E800977F9093E80073
:103F20008093F1001092F100CCC0822F8D7F09F0B8
:103F3000EAC0222319F0223061F0E5C080913E02F0
:103F4000813009F0E0C0333009F080E0809339021D
:103F50002AC080913E02811126C0209140022F701C
:103F60008FEF820F863008F0CEC02093E900809159
:103F7000EB0080FF18C08091EB00333011F48062B9
:103F800010C080618093EB0081E090E001C0880F59
:103F90002A95EAF78093EA001092EA008091EB00FC
:103FA00088608093EB001092E9008091E800877FA1
:103FB0008093E8000E946B1DA6C02111A4C010913F
:103FC0003E021F778091E3008078812B8093E3008D
:103FD0008091E800877F8093E8000E946B1D8091AC
:103FE000E80080FFFCCF8091E30080688093E300CD
:103FF000112311F083E001C082E080933B0283C073
:104000002058223008F07FC080913E0290913F02FC
:104010008C3D23E0920779F583E08A838AE28983E5
:104020004FB7F894DE01139620E03EE051E2E32F13
:10403000F0E050935700E49120FF03C0E295EF7049
:104040003F5FEF708E2F90E0EA3010F0C79601C00E
:10405000C0968D939D932F5F243149F74FBF809178
:10406000E800877F8093E8006AE270E0CE01019665
:104070000E94731C15C06091400270914102AE0114
:104080004F5F5F4F0E949B1B0097E9F12091E80072
:10409000277F2093E800BC0189819A810E94D41C6B
:1040A0008091E8008B778093E8002DC0203859F587
:1040B0008091E800877F8093E800809137028093A9
:1040C000F1008091E8008E7773CF21111CC0909190
:1040D0003E029230C0F48091E800877F8093E80030
:1040E000909337020E946B1D80913702811104C0AA
:1040F0008091E30087FF02C084E001C081E08093EB
:104100003B020E949D1A8091E80083FF0AC08091C3
:10411000E800877F8093E8008091EB0080628093C5
:10412000EB00AA960FB6F894DEBF0FBECDBFDF91AD
:10413000CF911F9108950895CF9380913B028823DA
:10414000B1F08091E9008F709091EC0090FF02C077
:1041500090E801C090E0C92FC82B1092E90080912F
:10416000E80083FD0E94451FCF70C093E900CF9106
:10417000089597FB072E16F4009407D077FD09D019
:104180000E94D32007FC05D03EF4909581959F4F67
:104190000895709561957F4F0895EE0FFF1F05906C
:1041A000F491E02D0994AA1BBB1B51E107C0AA1F83
:1041B000BB1FA617B70710F0A61BB70B881F991FC8
:1041C0005A95A9F780959095BC01CD010895F9996C
:1041D000FECF92BD81BDF89A992780B50895A8E1D8
:1041E000B0E042E050E00C940F21262FF999FECF69
:1041F00092BD81BDF89A019700B4021639F01FBA3A
:1042000020BD0FB6F894FA9AF99A0FBE0895019658
:10421000272F0E94F6200C94F520DC01CB01FC0135
:10422000F999FECF06C0F2BDE1BDF89A319600B40F
:0E4230000D9241505040B8F70895F894FFCF1A
:10423E00DD012808140A321E9619341A091AD319E8
:10424E0099190133323130F4F1F0379091959497FA
:10425E0034676693923536F7F6F5404D3639F506E6
:0E426E00A80672063906CC05E505FE05170602
:00000001FF
