:100000000C94A6030C94C3030C94C3030C94C30375
:100010000C94C3030C94C3030C94C3030C94C30348
:100020000C94C3030C94C3030C943B1E0C940E1F3E
:100030000C94B9160C94C3030C94C3030C94C3031F
:100040000C94C3030C94C3030C94C3030C94C30318
:100050000C94C3030C9421170C94C3030C94C30396
:100060000C94C3030C94C3030C94C3030C94C303F8
:100070000C94C3030C94C3030C94C3030C94C303E8
:100080000C94C3030C94C3030C94C3030C94C303D8
:100090000C94C3030C94C3030C94C3030C94C303C8
:1000A0000C94C3030C94C3030C94C30329001E00D7
:1000B0001F0020002100220023000000000000009B
:1000C00024002500260027002D002E0035004C00BE
:1000D0002B0014001A00080015001700000003513F
:1000E000015102511C0018000C00120013002F00D7
:1000F00030003100E00004001600070009000A008B
:100100004D000000520000004A000B000D000E00E0
:100110000F00330034002800E1001D001B00060022
:10012000190005000000500051004F0000000000C1
:1001300011001000360037003800E500E000E20052
:10014000E3000000E300E100E2004E0000004B008D
:10015000280000002C002A00E70006510451E400AA
:100160000100010001000100010001000100000088
:100170000000000001000100010001000100010079
:100180000100010001000100010001000100010067
:100190000000010001000100010001000100010058
:1001A0000100010001000100010001000100010047
:1001B0000100010001000000010000000100010039
:1001C0000100010001000100010001000100010027
:1001D0000100010001000100000001000100010018
:1001E0000000000001000100010001000100010009
:1001F0000100E300E2000000E2000100E000010075
:10020000000001000100000001000100E600010003
:100210000551010001000100010001000100010081
:1002200001000000000000000100010001000100C9
:1002300001000100010001000100010001000100B6
:1002400001000100000001000100010001000100A7
:100250000100010001000100010001000100010096
:100260000100010001000100010000000100000088
:100270000100010001000100010001000100010076
:100280000100010001000100010001000000010067
:100290000100010000000000010001000100010058
:1002A000010001000100E300E2000000E2000100A3
:1002B000E000010000000100010000000100010059
:1002C000E6000100055101000100010001000100EC
:1002D0000100010001000000000000000100010019
:1002E0000100010001000100010001000100010006
:1002F00001000100010001000000010001000100F7
:1003000001000100010001000100010001000100E5
:1003100001000100010001000100010001000000D6
:1003200001000000010001000100010001000100C6
:1003300001000100010001000100010001000100B5
:1003400000000100010001000000000001000100A8
:100350000100010001000100010001000100000096
:100360002A002C002800010000000100010000000C
:100370000100010001000100010001000100010075
:100380000100010001000100010000000000000068
:100390000100010001000100AA00A9000100010004
:1003A0000100010001000100010001000000010046
:1003B000010001000100010001000100AE00010088
:1003C0000100010001000100010001000100010025
:1003D0000100000001000000010001000100010017
:1003E0000100010001000100010001000100010005
:1003F00001000100000001000100010000000000F8
:1004000001000100BC00BB0001000100010001006F
:1004100001000000010001000100010000000100D6
:1004200001000000010001000100010001000100C5
:1004300001000100010001000100010001000000B5
:10044000000000000100010001000100AA00A90055
:100450000100010001000100010001000100010094
:100460000000010001000100010001000100010085
:10047000AE000100010001000100010001000100C7
:100480000100010001000000010000000100010066
:100490000100010001000100010001000100010054
:1004A0000100010001000100000001000100010045
:1004B0000000000001000100AC00AB0001000100E1
:1004C0000100010001000000010001000100010025
:1004D0000000010001000000010001000100010016
:1004E0000100010001003A003B003C003D003E00DD
:1004F0003F000000000000004000410042004300B7
:100500004400450001004900010001000100010014
:1005100001000100000001000100010001000100D4
:1005200001000100AE000100010001000100010016
:1005300001000100010001000100000001000000B5
:1005400001000100010001000100010001000100A3
:100550000100010001000100010001000000010094
:10056000010001000000000001000100AC00AB0030
:100570000100010001000100010000000100010074
:100580000100010000000100010000000100010065
:10059000010001000100010004033000000012030B
:1005A00045006C006C006900700073006900730006
:1005B00000001803430061006D00650072006F00C9
:1005C0006E002000530075006E0000000403090453
:1005D00009026D00040100A0FA09040000010301F2
:1005E00001000921110100012240000705810308D3
:1005F000000A0904010001030102000921110100A0
:1006000001224D000705820308000A0904020001C7
:1006100003000000092111010001223600070583B3
:100620000308000A09040300010300000009211166
:100630000100012239000705840320000112011086
:100640000100000008EDFE15E101000102030105B3
:10065000010906A101050719E029E7150025019503
:100660000875018102050819012905950575019193
:10067000029501750391010507190029F715002559
:100680000195F875018102C005010980A10185026B
:100690001601002603001A81002A830075109501B7
:1006A0008100C0050C0901A1018503160100269CEB
:1006B000021A01002A9C02751095018100C00501F3
:1006C0000902A1010901A100050919012905150067
:1006D00025019505750181029501750381010501CB
:1006E000093009311581257F950275088106093881
:1006F0001581257F950175088106050C0A380215BC
:1007000081257F950175088106C0C005010906A1F4
:1007100001050719E029E7150025019508750181F4
:1007200002950175088101050819012905950575CE
:100730000191029501750391010507190029FF1523
:100740000026FF00950675088100C00011241FBE19
:10075000CFEFDAE0DEBFCDBF11E0A0E0B1E0E0E531
:10076000F2E402C005900D92AE33B107D9F722E052
:10077000AEE3B1E001C01D92A434B207E1F70E94DC
:100780006A1B0C9426210C94000081E0089581E0FE
:1007900008950C94C7030E94C10F2FEF84E39CE0DF
:1007A000215080409040E1F700C000000C944717B2
:1007B0000F931F93CF93DF938C01FC01C081D181F4
:1007C000CE010E94AE14BE010E947405EC01B80176
:1007D0000E94C903882309F459C0B801CE010E94C0
:1007E000D807882309F452C0B801CE010E948A09B3
:1007F000882309F44BC0C531FCE5DF0709F439C192
:10080000B0F4C130ECE5DE0709F446C008F056C08C
:10081000C115DC45B1F181E080934301809344012F
:10082000C801DF91CF911F910F910C94C503C63D74
:10083000ECE5DE0709F402C1B8F4C43D8CE5D80745
:1008400009F4C0C0C53DDC4531F7F8018281882339
:1008500009F4DFC0109244010E94EB16909342010C
:100860008093410180E2BBC0C93DFCE5DF07F1F0A8
:10087000CA3DDC4581F6F8018281882339F082E0A7
:100880001AC0F801828181110E94CB0380E0DF91C0
:10089000CF911F910F910895F80182818823B1F3C0
:1008A00080910002816080930002F0CFF801828184
:1008B000882361F380E00E94031CE8CFF801828165
:1008C000882309F4ADCF0E94CD15811102C00E948A
:1008D000B3150E94E01590E09093360280933502A4
:1008E000FE01E350FC45809135028160E231F10563
:1008F000C8F4E358FB4F0C94D6208F049B049F044C
:10090000A304A704AB04AF04B304B704BB04BF043F
:10091000C304C704CB04CF04D304D704DB04809101
:100920003502826080933502809135020E94E41581
:100930000E94C10FABCF809135028460F3CF8091CC
:1009400035028860EFCF809135028061EBCF8091D6
:1009500035028062E7CF809135028064E3CF8091D9
:1009600035028068DFCF809135028460EACF8091C4
:1009700035028E7FD7CF809135028D7FD3CF809186
:1009800035028B7FCFCF80913502877FCBCF80918F
:1009900035028F7EC7CF809135028F7DC3CF809186
:1009A00035028F7BBFCF809135028F77BBCF80918F
:1009B00035028B7FEACF90913502892F97FB87F91B
:1009C0008058B0CFF8018281882361F010924301F2
:1009D0000E94EB169093400180933F0182E00E94B9
:1009E000E70C54CF8091430181110FC080913F01EA
:1009F000909140010E94F716883C910530F486E200
:100A00000E940C0C86E20E94BF0C82E00E94EE0C59
:100A10003DCF8091440181110FC08091410190919F
:100A200042010E94F716883C910530F487E20E944B
:100A30000C0C87E20E94BF0C80E2E8CFF8018281B3
:100A4000811108CF809144018111F6CF809141013D
:100A5000909142010E94F716883C910568F780E268
:100A60000E94EE0C88E20E940C0C88E20E94BF0CEF
:100A70000DCF0E947415F8019281992381F08A7A32
:100A800091E009F490E090933E01811106C089E263
:100A90000E94FD140E944115F9CE85E3F9CF8091A3
:100AA0003E01811104C089E20E940415F3CF85E361
:100AB000FBCF0C9428080C942B08282F2F7041F0A2
:100AC000822F90E02A3010F44D96089506970895ED
:100AD00087E290E0089508950C946B050C946C05E2
:100AE00090E080E008950895972F70E022E1929FB2
:100AF000600D711D1124FB019AE5899FE00DF11D28
:100B00001124EE0FFF1FE455FF4F85919491089536
:100B1000FC01EE0FFF1FE856FA4F8591949108955E
:100B2000CF93DF930E9474050E943407EC01811576
:100B3000904508F043C0C11580E4D80708F00AC109
:100B4000C83ED10528F5C03ED10508F09EC0C83A80
:100B5000D10580F4C53AD10508F08DC0C130D1056A
:100B600009F493C020F0C430D10508F08EC0D0E065
:100B7000C0E08BC0CD3BD10508F48BC0CE01805CBA
:100B80009109C03CD10598F30E948805EC017DC015
:100B9000C11520E2D20750F4C11581E0D80708F052
:100BA00074C0C03FD10518F3D0656FC0C11520E3F4
:100BB000D20708F0C5C0CE019F70E6CFC11585E50C
:100BC000D80760F5C11524E5D20708F0F1C0C115BA
:100BD00082E5D80750F4C11521E5D20708F4BDC05D
:100BE000DC2FCC27C16FD06A50C09C2F969596956C
:100BF0009E0123703327C115D34508F0CAC0C1E058
:100C0000D0E002C0CC0FDD1F2A95E2F720E2929FD0
:100C1000C0011124C82BD92BDC6837C0C11529E5C8
:100C2000D20780F4C11588E5D80708F0C6C0C11501
:100C300026E5D20708F09BCFDC2FCC27CC27DF712D
:100C4000D06223C0C1158AE5D80708F4BBC0CE0125
:100C500090568115904208F08ACF8D2F8F710E9497
:100C6000B407DD27D06290E0982F882788279F71EE
:100C7000C82BD92B0AC0C53AD10509F4B0C0C63A71
:100C8000D10509F4AFC0C3E8D0E4CE01DF91CF9124
:100C90000895C83AD10509F4A8C0C93AD10509F4A4
:100CA000A7C0CA3AD10509F4A6C0CB3AD10509F4C8
:100CB000A5C0CC3AD10509F4A4C0CB3BD10509F4B9
:100CC000A3C0CC3BD10509F4A2C0CD3AD10509F4AB
:100CD000A1C0C03BD10509F4A0C0CE3AD10509F4AA
:100CE0009FC0CF3AD10509F49EC0C13BD10509F49C
:100CF0009DC0C23BD10509F49CC0C33BD10509F49A
:100D00009BC0C43BD10509F49AC0C53BD10509F489
:100D100099C0C63BD10509F498C0C73BD10509F479
:100D200097C0C83BD10509F496C0C93BD10509F469
:100D300095C0CA3BD10509F094C0CAE2D6E4A5CF5C
:100D4000CE019927D3FF03C0EC01D86C9ECFEC01F4
:100D5000D06C9BCFDF70D06A98CFCE01E4E096953F
:100D60008795EA95E1F783709C2F937021E030E03E
:100D700002C0220F331F9A95E2F73C68382BC695C4
:100D8000C695C37080E2C89FE0011124C22BD32B0B
:100D90007CCFC1E0D0E002C0CC0FDD1F2A95E2F786
:100DA00020E2929FC0011124C82BD92BDA686DCFA5
:100DB000DC2FCC27C46FD06A68CFDC2FCC27C06F64
:100DC000D06A63CFCE0134E0969587953A95E1F7E6
:100DD0008F70CF70C06ED0E0D06AD82B56CFC1E8EC
:100DE000D0E453CFC2E8D0E450CFC2EED4E44DCF2C
:100DF000C9EED4E44ACFCAEED4E447CFC5EBD4E47D
:100E000044CFC6EBD4E441CFC3EBD4E43ECFC4EB34
:100E1000D4E43BCFC7EBD4E438CFCCECD4E435CF2B
:100E2000CDECD4E432CFC3E8D5E42FCFCAE8D5E483
:100E30002CCFC2E9D5E429CFC4E9D5E426CFC1E25D
:100E4000D6E423CFC3E2D6E420CFC4E2D6E41DCF5C
:100E5000C5E2D6E41ACFC6E2D6E417CFC7E2D6E49D
:100E600014CFC0E0D4E411CF8238910549F1B0F439
:100E70008133910509F45CC048F48932910509F485
:100E800052C08A32910509F458C0089585339105FE
:100E900009F444C08933910599F00895833E910582
:100EA00031F138F4803E910591F0823E9105B1F028
:100EB0000895863E910511F1873E910541F108950F
:100EC000209135022370C9F080EE90E008952091C2
:100ED000350220FF12C089E390E008952091350289
:100EE00022FF0BC024FF2EC090E080E008952091E7
:100EF000350222FD2AC024FDF7CF08952091350246
:100F000023FFFBCF24FDF0CF87EE90E008952091E2
:100F1000350223FFF0CF86EE90E008952091350250
:100F200025FD16C008952091350225FD14C00895B1
:100F30002091350226FD12C008952091350226FD2C
:100F400010C0089583EE90E0089582EE90E0089539
:100F500089E290E0089585E390E008958AE290E0C8
:100F6000089581E390E0C9CF9091350292FF06C0C9
:100F7000282F2871283069F4877F846093FF06C08A
:100F8000282F2871283161F4877E846194FD877E43
:100F90000895282F2471243089F78B7F8860EECF45
:100FA000282F2471243191F78B7E8861EFCF08952B
:100FB0000F931F93CF938C01FB018281811106C097
:100FC000C1E08C2FCF911F910F910895C0915201D4
:100FD000C11125C006311C4599F70E94D70781E051
:100FE000809352010E94EB1690935101809350011F
:100FF000109245011092470110924601109249014A
:101000001092480110924B0110924A0110924D012A
:1010100010924C0110924F0110924E01D2CF80914C
:101020005001909151010E94F7168C32914040F688
:1010300080914501E82FF0E0EE0FFF1FEA5BFE4FC5
:10104000118300838F5F80934501C0E0BACF08957C
:101050000C94270808950C942A0885B7806885BFEA
:1010600085B7806885BFA5E2B1E061E070E08D9151
:10107000E82FE295EF70F0E041A18F709B0101C075
:10108000220F8A95EAF7922F9095942391A382A13B
:10109000822B82A381E0AA32B80749F7A3E1B1E02D
:1010A00061E070E08D91E82FE295EF70F0E041A1F2
:1010B0008F709B0101C0220F8A95EAF7922F9095BD
:1010C000942391A382A1822B82A381E0A532B80749
:1010D00049F7E7E6F1E0A3E5B1E08BE791E0119293
:1010E0001192119211921D921D921D921D928E17B6
:1010F0009F07A9F70C9459052F923F924F925F9248
:101100006F927F928F929F92AF92BF92CF92DF9217
:10111000EF92FF920F931F93CF93DF93CDB7DEB77C
:101120002C970FB6F894DEBF0FBECDBF83E5882E97
:1011300081E0982E25E231E03A83298398868F82D8
:1011400022242394312CC12CD12C7601C394AA24BF
:10115000A394AF81B8854D905D906D907C9013976E
:10116000FD011082118212821382A981BA818D91B0
:10117000BA83A983E82FE295EF70F0E091A18F7018
:10118000910102C0220F331F8A95E2F73C832B8323
:10119000822F892B81A382A1B22EB0948B2182A3AE
:1011A00030EA3A95F1F743E151E05E834D8390E0F8
:1011B00080E0AD81BE813D91BE83AD83A32FA2951A
:1011C000AF70B0E090960C91AF81B8854D915D9174
:1011D0006D917C9149875A876B877C873F70A1010D
:1011E00002C0440F551F3A95E2F79A01202309F0F7
:1011F00081C0B701A601082E04C0440F551F661F09
:10120000771F0A94D2F78A019B0149855A856B851D
:101210007C85402B512B622B732BAF81B8854D936E
:101220005D936D937C93139701968231910509F03C
:10123000C0CF81A1B822B1A282A1BB818B2B82A396
:10124000EF81F88580819181A281B381481659068A
:101250006A067B0641F0A0927B010E94EB169093F8
:101260007D0180937C012F8138852C5F3F4F38872B
:101270002F8349815A814A52514009F06ACF8091A7
:101280007B018823D9F080917C0190917D010E949F
:10129000F716069798F0E7E6F1E087E691E0D401CB
:1012A0004D915D916D917D914D014193519361936C
:1012B00071938A179B0799F710927B010E945B0537
:1012C00081E02C960FB6F894DEBF0FBECDBFDF9144
:1012D000CF911F910F91FF90EF90DF90CF90BF9033
:1012E000AF909F908F907F906F905F904F903F90C6
:1012F0002F90089500E010E0980187CF94E0899F37
:10130000F0011124E959FE4F60817181828193813E
:1013100008950895CF93DF93EC01C13080E8D8079A
:10132000C8F0FB0182818823A9F080917E018111A0
:1013300009C08CE090E00E94F0200E94AE0981E09C
:1013400080937E010E94B509CE019F770E94800A9A
:101350000E94320A81E0DF91CF91089580937F014E
:10136000682F8CE090E00C94FE20E0910001F09159
:101370000101808180932E0281FF03C081EE0E94D3
:10138000BF0C80912E0285FF03C085EE0E94BF0C2A
:1013900080912E0280FF03C080EE0E94BF0C8091DE
:1013A0002E0284FF03C084EE0E94BF0C80912E02A7
:1013B00082FF03C082EE0E94BF0C80912E0286FF46
:1013C00003C086EE0E94BF0C80912E0283FF03C0F3
:1013D00083EE0E94BF0C80912E0287FF03C087EE30
:1013E0000E94BF0C80917F01823049F158F488231C
:1013F00079F0813089F08FE39CE90197F1F700C023
:1014000000000895843019F18530A9F786EE01C0F7
:1014100082EE0E940C0CEFCF80EE0E940C0C81EE4D
:101420000E940C0C88E10E940C0C88E10E94BF0C09
:1014300081EE0E94BF0C80EE0E94BF0CDCCF82EEDA
:101440000E940C0C87E50E940C0C87E5F5CF86EE18
:101450000E940C0C86EE0E94BF0C88E10E940C0CCE
:1014600088E1EACF80917F01813009F443C0E0F147
:101470008230D1F18530E1F180912E0281FF03C0ED
:1014800081EE0E940C0C80912E0285FF03C085EE38
:101490000E940C0C80912E0280FF03C080EE0E94FF
:1014A0000C0C80912E0284FF03C084EE0E940C0C71
:1014B00080912E0282FF03C082EE0E940C0C80916C
:1014C0002E0286FF03C086EE0E940C0C80912E0235
:1014D00083FF03C083EE0E940C0C80912E0287FFD5
:1014E0000EC087EE0C940C0C82EE0E94BF0CC4CF91
:1014F00086EEFBCF8CE20E940C0C8CE2F6CF0895B6
:10150000EF92FF921F93CF93DF937C01CCE0D0E06A
:10151000C7010C2E02C0969587950A94E2F7182F02
:101520001F70812F0E945D050E940C0C812F0E946C
:101530005D050E94BF0C2497CC3F8FEFD80741F781
:10154000DF91CF911F91FF90EF90089590938501C7
:10155000809384010895E0918401F0918501309792
:1015600021F00190F081E02D099480E00895E09150
:101570008401F0918501309721F00280F381E02D04
:1015800009940895E0918401F0918501309721F04C
:101590000480F581E02D0994089520918201309115
:1015A00083012817390771F090938301809382019A
:1015B000E0918401F0918501309721F00680F78158
:1015C000E02D099408952091800130918101281720
:1015D000390771F09093810180938001E09184013B
:1015E000F0918501309721F00084F185E02D099478
:1015F000089508950C94F90A81E008950E94E21676
:101600000E942D080C9479174F925F926F927F92EF
:101610008F929F92AF92BF92DF92EF92FF920F93C1
:101620001F93CF93DF93CDB7DEB72A970FB6F89409
:10163000DEBF0FBECDBF0E947C080E94FC0A88233B
:1016400009F494C027E8E22E21E0F22E10E000E039
:10165000D02E802F0E947E094B015C01F701419042
:101660005190619071907F01481459046A047B0481
:1016700009F476C08091000281FD0E94890990E002
:1016800080E0482459246A247B24B301A201082E57
:1016900004C076956795579547950A94D2F740FF11
:1016A0005AC08E83DF82412C512C3201439404C0F6
:1016B000440C551C661C771C8A95D2F78420952013
:1016C000A620B72081E089288A288B2809F480E0A9
:1016D00088870E94EB168160782F9A8789874E81D0
:1016E0005F8168858A850E94DD0B000F111F000F46
:1016F000111FF801E957FE4F80819181A281B381CA
:1017000084259525A625B72580839183A283B3835D
:101710000E940C190E94AB0A909186018917B9F1B9
:101720000E94AB0A809386012A960FB6F894DEBF1A
:101730000FBECDBFDF91CF911F910F91FF90EF9022
:10174000DF90BF90AF909F908F907F906F905F9051
:101750004F900C946E0501968231910509F095CF5A
:101760000F5F1F4F0530110509F072CF8FEF89838E
:101770008A831B820E94EB168160782F9D838C8365
:1017800049815A816B818D810E94DD0BC1CF2A96E0
:101790000FB6F894DEBF0FBECDBFDF91CF911F9182
:1017A0000F91FF90EF90DF90BF90AF909F908F9040
:1017B0007F906F905F904F900895CF93DF93CDB758
:1017C000DEB72B970FB6F894DEBF0FBECDBF4F83A9
:1017D000588769877A878B871E821D8285E0FE0184
:1017E0003796DE01119601900D928A95E1F74981B5
:1017F0005A816B817C818D819E812B960FB6F894E6
:10180000DEBF0FBECDBFDF91CF910C948112FC01E2
:10181000808191810C94F014882309F4AFC09CEF6F
:10182000980F913A20F40E94FD140C94411590E217
:10183000980F983050F4877091E001C0990F8A9505
:10184000EAF7892F0E947715F0CF9BE5980F933028
:1018500070F4853A31F0863A39F083E890E00C94E0
:10186000CD0A81E890E0FBCF82E890E0F8CF98E5E0
:10187000980F953108F082C0883A09F440C0893A3F
:1018800009F440C08A3A09F440C08B3A09F440C0D8
:101890008C3A09F440C08B3B09F440C08C3B09F4FE
:1018A00040C08D3A09F440C0803B09F440C08E3AF4
:1018B00009F440C08F3A09F440C0813B09F440C0AC
:1018C000823B09F440C0833B09F440C0843B09F4E7
:1018D00040C0853B09F440C0863B09F440C0873BCB
:1018E00009F440C0883B09F440C0893B09F440C07A
:1018F0008A3B09F440C090E080E00C94E30A82EE59
:1019000090E0FBCF89EE90E0F8CF8AEE90E0F5CF43
:1019100085EB90E0F2CF86EB90E0EFCF83EB90E0A9
:10192000ECCF84EB90E0E9CF87EB90E0E6CF8CEC56
:1019300090E0E3CF8DEC90E0E0CF83E891E0DDCF65
:101940008AE891E0DACF82E991E0D7CF84E991E0AB
:10195000D4CF81E292E0D1CF83E292E0CECF84E295
:1019600092E0CBCF85E292E0C8CF86E292E0C5CF8D
:1019700087E292E0C2CF8AE292E0BFCF0895882347
:1019800029F19CEF980F913A20F40E9404150C94D1
:10199000411590E2980F983050F4877091E001C0A3
:1019A000990F8A95EAF7892F0E947D15F0CF9BE564
:1019B000980F933020F490E080E00C94CD0A885A80
:1019C000853120F490E080E00C94E30A08958823A8
:1019D00021F00E9477150C9441150895882321F079
:1019E0000E947D150C94411508958F929F92AF929D
:1019F000BF92DF92EF92FF920F931F93CF93DF93EB
:101A00007C01D62FC72FFC01058102950F70128132
:101A100011110E9496150E943A15D82E882371F054
:101A2000112331F180E28D0F883010F182E00E94A5
:101A300024150E943A1591E0D82ED926BC2EB294D6
:101A40009FE0B922EB2DF0E0E85DF24F0C94D62038
:101A50003A0D3A0D8A0D8A0DD10DF90DD80DD80D1C
:101A60003B0ED80DD60ED60E600FD80DD80D690FCF
:101A7000D12CE4CF0C2F0F70C07F11F00295007FA6
:101A80001123A9F0002359F080E28D0F883010F067
:101A9000D11109C0802F0E9477150E9441158D2F0A
:101AA0000E940C0C14C0802F0E948815F6CF8D2F39
:101AB0000E94BF0C002359F080E28D0F883010F097
:101AC000D11124C0802F0E947D150E944115DD2078
:101AD00009F406C20E94171580FD02C2F7011282A6
:101AE0000E9411150E941214C7010E947C0F0E94CF
:101AF0001115DF91CF911F910F91FF90EF90DF9023
:101B0000BF90AF909F908F900C943314802F0E94C1
:101B10008E15DBCFFC2FFF70BF2EC07FC03219F0B7
:101B2000B29480EFB822DD2369F0D13049F111235E
:101B300091F1002351F1F701858180FFB0CF8F70C3
:101B4000858323C0112381F0011106C00E94B015C6
:101B50008B290E94E70CBBCF0130C1F70E94B01562
:101B60008B290E94AA15B3CF011106C00E94AD15A2
:101B70008B2D0E94EE0CABCF013009F4A8CFF6CF2D
:101B8000112329F0063008F0A2CF8B2DE2CF0530CB
:101B900008F09DCFEDCF002359F38D2F0E94BF0C8D
:101BA00096CF8C2F86958695837079F08130B9F029
:101BB00098E0B91609F49BC0B91608F488CF86EFEF
:101BC0008B0D823008F493C082CF8D2F9C2F9370A1
:101BD000111102C090E080E00E94CD0A78CF8D2FD5
:101BE0009C2F9370111102C090E080E00E94E30AE4
:101BF0006ECF112309F1D53F99F0D63FB9F0D43F0C
:101C000049F480912F0290913002816090933002CC
:101C100080932F028D2F0E9415180E94011957CF13
:101C200080912F02909130028260F0CF80912F023C
:101C3000909130028460EACFD53F89F0D63FA9F079
:101C4000D43F49F480912F02909130028E7F90937F
:101C5000300280932F028D2F0E947D18DECF80915D
:101C60002F02909130028D7FF2CF80912F029091C0
:101C700030028B7FECCF8C2F837009F04BC0111199
:101C800036C02D2F229526952770220F220F6D2FFB
:101C90006F70862E912CB12CA12C022E04C0880CC2
:101CA000991CAA1CBB1C0A94D2F760E070E0CB011F
:101CB000D4FF0FC06FE070E080E090E004C0660FDA
:101CC000771F881F991F2A95D2F760957095809588
:101CD0009095C695C695C370C23071F0A0F468297E
:101CE00079298A299B29C13091F00E94C4130E944E
:101CF000AB0A0E946E05EBCE682979298A299B29B7
:101D00000E94D613F4CF0E94C413C501B4010E94EF
:101D1000B213EDCF8695112311F08C2F817088239B
:101D200031F32D2F229526952770220F220F6D2F2C
:101D30006F70862E912CB12CA12C022E04C0880C21
:101D4000991CAA1CBB1C0A94D2F760E070E0CB017E
:101D5000D4FF0FC06FE070E080E090E004C0660F39
:101D6000771F881F991F2A95D2F7609570958095E7
:101D70009095C695C695C370C23051F080F468291D
:101D800079298A299B29C13071F00E948914AFCF2B
:101D9000682979298A299B290E949B14A8CF0E942F
:101DA0008914C501B4010E947714A1CFE0E2ED0FC0
:101DB000E53108F066C0F0E0E052F14F0C94D62017
:101DC000F50EF50EF50EF50EF50EF50EF50EF50EFB
:101DD000F50EF50EF50EF50EF50EF50EF50EF50EEB
:101DE000060F140F1B0F220F2C0FDF708C2F8F711B
:101DF000112331F00E9412148D2F0E94E70CD8CECF
:101E00000E9433148D2F0E94EE0CD2CE112341F08C
:101E1000053008F0CDCE8C2F8F710E945614C8CE9D
:101E2000063008F0C5CEF7CF8C2F8F71112339F013
:101E30000E941214BDCE8C2F8F711123C9F30E9402
:101E40003314B6CE112329F08C2F8F710E94FD130D
:101E5000AFCE0E94F813ACCE112349F0CF718C2F76
:101E60000E94121463E08C2F0E941B15A1CE81E00A
:101E70000E942415023008F49BCE82E00E942415B3
:101E800097CE112349F0002321F08D2F0E940C0CD6
:101E90008FCE8C2F8F71CCCF002379F0D93349F4BA
:101EA000FFEF27EE83E0F15020408040E1F700C0D3
:101EB00000008D2F0E94BF0C7BCE8C2F8F71BFCF67
:101EC0004C2F4F706D2FC7010E9470050E942A137E
:101ED000FECD4C2F4F706D2FC7010E947305F7CDBB
:101EE000DF91CF911F910F91FF90EF90DF90BF9006
:101EF000AF909F908F9008950F931F93CF93DF9390
:101F0000EC01988189812B813C81232B39F08F3F13
:101F100019F481E09F3F19F080E001C081E080FD6D
:101F200017C0CE010E94D803882391F0688179817F
:101F30008A810E94FA148C010E94AD140E94AF1392
:101F4000B801CE01DF91CF911F910F910C94F50C48
:101F5000DF91CF911F910F9108950E9496150E94D5
:101F6000A7150E940B150E9441150E9497190E9407
:101F7000011990E080E00E94CD0A90E080E00C948E
:101F8000E30A0E9485150C94AD0F0E94F014E92F0E
:101F9000E295EF70E250EE30E0F4F0E0EE52F04FF8
:101FA0000C94D620E00FE00FE90FE90FEB0FE90FDB
:101FB000E90FE90FE00FE00FF00FE90FE90FF00F65
:101FC000803F19F020F4803E20F481E00895843FA2
:101FD000E1F380E00895803EC0F3813FD1F7F5CF73
:101FE00093FB882780F90895CF93DF9300D000D02A
:101FF0001F92CDB7DEB70F900F900F900F900F90FC
:10200000DF91CF910895CF93DF9300D000D000D01F
:10201000CDB7DEB726960FB6F894DEBF0FBECDBFA4
:10202000DF91CF9108951F93CF93DF93C0919B01D0
:1020300016E080919C018C1304C0DF91CF911F9119
:102040000895D0E01C9FF0011D9FF00D1124E35670
:10205000FE4F4081518162817381848195810E940C
:1020600003102196C770E5CF4091CD015091CE016C
:102070006091CF017091D0018091D1019091D201F6
:102080000C9403101F93CF93DF938091D201807F34
:10209000D1F48091CF018823B1F080919B01D09140
:1020A0009C01B091CD01C091CE014091D0015091E1
:1020B000D101A1E0BF3F09F0A0E0BA0160957095A1
:1020C00016E0D81304C0DF91CF911F91089521E04D
:1020D0004115510521F02A2FCF3F09F020E090E073
:1020E00020FD38C0189FF001199FF00D1124E35610
:1020F000FE4F21812C132EC020812B132BC0228157
:10210000211128C0238134812417350700F1241BB5
:10211000350B283C3105F0F42091D2012F7020615D
:102120002093D20126E0289FF001299FF00D112471
:10213000EE55FE4F80818F70806180838DEC91E041
:102140000E947C0FDF91CF911F910C941310260FEA
:10215000371FDFCF01968770B4CFAF92BF92CF9277
:10216000DF92EF92FF920F931F93CF93DF93CDB740
:10217000DEB761970FB6F894DEBF0FBECDBF8C01FE
:1021800085E0F801DE011D9601900D928A95E1F738
:10219000D8014C9111965C9111971296EC90309168
:1021A000CD016091CE018091D0019091D10121E0CB
:1021B000009731F06F3F19F421E03F3F09F020E034
:1021C000B22FB170BB2E20FD80C1F801C380D48036
:1021D000A090CF01AA2009F427C1C816D906D0F1D2
:1021E000D601A81BB90BCD01FF24F394883C9105BF
:1021F00008F0F12C8091D201982F907FFF2009F4F4
:10220000CEC0911187C0FE2C651329C0341327C09E
:10221000E11025C08F7080618093D2010E9434103C
:102220008DEC91E00E947C0F8091D201F8018583B2
:102230008F2D61960FB6F894DEBF0FBECDBFDF9134
:10224000CF911F910F91FF90EF90DF90CF90BF90B3
:10225000AF900895809590958C0D9D1DC5CF81E020
:10226000CD2831F05F3F19F481E04F3F09F080E065
:1022700080FD24C081E08E25F82FF170DF2E80FFD5
:102280003FC080919B0120919C0136E0821318C0D1
:102290004D875E878D859E850E94F014292F22959B
:1022A0002F70223008F1243030F59F7009F1D801E9
:1022B00015969C91907FE1F4FB2CBACF80E0DCCFA7
:1022C00090E0389FF001399FF00D1124E356FE4F46
:1022D0006181561306C06081461303C062816E118E
:1022E0000FC001968770D2CF9F7011F0882321F321
:1022F000805E883008F3C8010E947C0FBD2CDCCFC3
:10230000EE2009F495CF8091D20181608093D201B3
:10231000F12C8ECF651314C0341312C0E11010C01D
:10232000F8018583C8010E947C0F86E0F801ADECBE
:10233000B1E001900D928A95E1F70E94341078CFB8
:102340004D875E878D859E850E94C50F882319F174
:10235000EE2009F18091D201803270F02091CD0100
:102360003091CE0138872F831986DB86CA868C8709
:10237000CE0107960E947C0F86E0F801ADECB1E03B
:1023800001900D928A95E1F70E9442100E9434104C
:10239000FF24F3944DCFC8010E947C0FF9CF911117
:1023A00013C07C2DD98AC88A6E2D89890E94F40FAA
:1023B0008DEC91E00E947C0F86E0EDECF1E0DF0116
:1023C0001D928A95E9F7B9CF651312C0341310C076
:1023D000E1100EC0F8018583C8010E947C0FEDEC6E
:1023E000F1E086E0DF011D928A95E9F7FA2C20CF13
:1023F0004D875E878D859E850E94C50F882359F283
:10240000EE2049F28091D201803208F4B5CF2091BC
:10241000CD013091CE013A8329831B82DD82CC82AB
:102420008E83CE010196A6CFC816D90638F1F601E3
:10243000E81BF90BCF01F12C883C910508F03DC059
:10244000FE2CEE2009F4A7CF651326C0341324C058
:102450008091D20180FD17C0982F907FA1F0D80104
:1024600015968C931597903F09F45CCF982F907F29
:10247000905F8F70892B15968C9354CF8095909593
:102480008C0D9D1DD8CF86E0F801ADECB1E0019038
:102490000D928A95E1F7CCCE4D875E878D859E851E
:1024A0000E94C50F811168CF8091D2018160809315
:1024B000D201C8010E947C0FBBCE7C2DD98AC88A6C
:1024C0006E2D89890E94F40F77CFEE2009F463CF37
:1024D0004D875E878D859E850E94C50FF82E8823C7
:1024E00009F459CF86E0F801ADECB1E001900D920E
:1024F0008A95E1F78DEC91E00E94070C0E94421052
:102500001CCF1F93CF93DF93CDB7DEB72C970FB6B9
:10251000F894DEBF0FBECDBF4F83588769877A8797
:102520008B879C87CE0107960E94AD10882309F403
:1025300042C09F8188852A853B85232B39F08F3FB8
:1025400019F481E09F3F19F080E001C081E080FD37
:1025500008C04F81588569857A858B859C850E9446
:10256000031016E080919B0190919C01891709F45A
:1025700067C0819FC001112483569E4F0E94AD10F9
:10258000882309F45DC0E0919B011E9FF001112496
:10259000E356FE4F40815181628173818481958130
:1025A0000E94031080919B0190E00196877099270B
:1025B00080939B01D7CF86E0FE013796DE0111960E
:1025C00001900D928A95E1F79F8188852A853B8548
:1025D000232B39F08F3F19F481E09F3F19F080E001
:1025E00001C081E080FDBDCF20919C0130E0C90198
:1025F00001968770992740919B014817190699F019
:1026000096E0929FD001939FB00D1124A356BE4F28
:10261000FE01319601900D929A95E1F780939C010D
:102620000E9413109ECF0E94C10F10929C01109225
:102630009B0186E0EDECF1E0DF011D928A95E9F760
:102640002C960FB6F894DEBF0FBECDBFDF91CF91B1
:102650001F910895EF92FF920F931F93CF93DF93F3
:102660008C01892B81F0F12CEE24E394E801219672
:10267000F8018491843770F4843008F05FC08130B1
:10268000B1F08230A1F1DF91CF911F910F91FF90B6
:10269000EF900895853709F44CC008F43DC09CE7DD
:1026A000980F903780F78F770E94BF0C49C00E5F5C
:1026B0001F4FFE01849190E2980F983060F487706C
:1026C000FE2D01C0FF0F8A95EAF78F2F0E94991502
:1026D0000E94411502C00E940C0C8F2D815030F2D7
:1026E000EFE9FFE03197F1F700C00000F7CF0E5F90
:1026F0001F4FFE01849190E2980F983050F487703C
:10270000FE2D01C0FF0F8A95EAF78F2F0E949F15BB
:10271000DFCF0E94BF0CE1CF0E5F1F4FFE01C491BF
:10272000C150D8F28FE99FE00197F1F700C0000097
:10273000F7CF0E5F1F4FFE01F490CFCF0E940C0C1D
:102740008E01CBCF08950E94A2136093D70170939E
:10275000D8018093D9019093DA010C94AD0F0895BC
:102760000C94A3130F931F930091D7011091D801DC
:102770002091D9013091DA01602B712B822B932BA0
:102780001F910F910C94A3130F931F930091D701E6
:102790001091D8012091D9013091DA016023712381
:1027A000822393231F910F910C94A3130F931F93D4
:1027B0000091D7011091D8012091D9013091DA010F
:1027C00060277127822793271F910F910C94A313E1
:1027D0000C94A2130C94E8130E94EA136093D301A3
:1027E0007093D4018093D5019093D6010C94AD0FD2
:1027F00060E070E0CB010C94EC130F931F9341E069
:1028000050E060E070E08A019B0104C0000F111FDE
:10281000221F331F8A95D2F7C901B8011F910F916A
:102820000C94EC130F931F9341E050E060E070E0D4
:1028300004C0440F551F661F771F8A95D2F78091F9
:10284000D3019091D401A091D501B091D6018A0114
:102850009B01082B192B2A2B3B2BC901B8011F9177
:102860000F910C94EC130F931F9341E050E060E044
:1028700070E004C0440F551F661F771F8A95D2F77A
:10288000CB01BA0160957095809590950091D30128
:102890001091D4012091D5013091D601602371238C
:1028A000822393231F910F910C94EC130F931F938A
:1028B00041E050E060E070E004C0440F551F661F27
:1028C000771F8A95D2F78091D3019091D401A0917E
:1028D000D501B091D6018A019B01082719272A2723
:1028E0003B27C901B8011F910F910C94EC130F9372
:1028F0001F930091D3011091D4012091D501309103
:10290000D601602B712B822B932B1F910F910C946E
:10291000EC130F931F930091D3011091D4012091D8
:10292000D5013091D60160237123822393231F9117
:102930000F910C94EC130F931F930091D3011091FE
:10294000D4012091D5013091D601602771278227CB
:1029500093271F910F910C94EC130895BF92CF927F
:10296000DF92EF92FF920F931F93CF93DF938C012F
:10297000C090D301D090D401E090D501F090D60161
:102980008091D7019091D801A091D901B091DA013D
:10299000C82AD92AEA2AFB2ACFE1D0E0BC2ED701E7
:1029A000C6010C2E04C0B695A795979587950A94F5
:1029B000D2F780FD0EC0219788F7B12C8B2DDF91C7
:1029C000CF911F910F91FF90EF90DF90CF90BF902C
:1029D0000895B8018C2F0E949005019761F3EECF06
:1029E000CF93DF93EC010E94AE14BE01DF91CF9133
:1029F0000C949005CB010C94F014682F8091000189
:102A0000909101010C944616682F809100019091DD
:102A100001010C94511680910001909101010C94D8
:102A20005C168091DB01859585958595089580914B
:102A3000DB018770089598E0899F90011124622B33
:102A40006093DB010C9412149091DB018095892333
:102A50008093DB01282F277061F4282F082E000CAB
:102A6000330B9217130629F08595859585950C945F
:102A7000331408959091DB01977081E009F480E0B0
:102A80000895E0910001F09101018091FF018083A0
:102A9000E0910001F091010180819091FE01892B6C
:102AA0008083E0910001F091010180819091FD010E
:102AB000892B80839091DC01992381F0E0910001C2
:102AC000F09101018081892B808380910001909198
:102AD00001010E94E91581111092DC018091000131
:102AE000909101010C94B70A8091FF010895909193
:102AF000FF01892B8093FF010895982F9095809175
:102B0000FF0189238093FF0108951092FF0108952A
:102B10009091FE01892B8093FE010895982F909546
:102B20008091FE0189238093FE0108951092FE0199
:102B300008959091FD01892B8093FD010895982FB0
:102B400090958091FD0189238093FD010895109255
:102B5000FD0108958093DC0108951092DC01089531
:102B60008091DC0108956DEE7EEF90E080E00E94A0
:102B7000102160E082E090E00E94FE2060E083E0AF
:102B800090E00E94FE2060E084E090E00E94FE2041
:102B900060E085E090E00C94FE2090E080E00E94F0
:102BA000F82021E08D3E9E4F09F020E0822F08950D
:102BB00082E090E00C94F02083E090E00C94F02010
:102BC00084E090E00C94F020682F84E090E00C9476
:102BD000FE20FC0131969C01205E3F4F80E09191E8
:102BE00091118F5FE217F307D1F708959C01FC0163
:102BF00032969FEF80E04191461751F09F3F19F4C4
:102C0000411101C0982F8F5F8E31A9F79F3F09F4C2
:102C10000895290F311D97FD3A95F90162830895B2
:102C2000FC01329680962191261303C0DF01119793
:102C30001C92E817F907B9F70895E62FE695E6958F
:102C4000E695EF3169F0E80FF92FF11D677021E08B
:102C500030E001C0220F6A95EAF78181822B8183DF
:102C60000895E62FE695E695E695EF3171F0E80FC9
:102C7000F92FF11D677021E030E001C0220F6A9545
:102C8000EAF720958181282321830895209112015C
:102C9000222329F02091350227FD0C941D160C9457
:102CA000F61520911201222329F02091350227FDEB
:102CB0000C9431160C941016FC01319680961192EA
:102CC000E817F907E1F70895089508950C9465163B
:102CD00080913B02843049F11092010288E190E03A
:102CE00020E40FB6F894A895809360000FBE20935F
:102CF000600080E00E946E050E94661683B7817FA7
:102D0000846083BF83B7816083BF7894889583B7DD
:102D10008E7F83BF0FB6F894A8958091600088617C
:102D200080936000109260000FBE08950895CF93C5
:102D30000E9464160E947C080E949616C0E08C2FA8
:102D40000E947E09672B682B692B31F4CF5FC53059
:102D5000B1F780E0CF91089581E0FCCF08950C9405
:102D6000AE160E94C10F0E94AB0A0E946E050C9421
:102D7000AF161F920F920FB60F9211248F939F934D
:102D8000AF93BF9380910102811113C080913102F2
:102D900090913202A0913302B09134024196A11D6C
:102DA000B11D8093310290933202A0933302B0930D
:102DB0003402BF91AF919F918F910F900FBE0F90F2
:102DC0001F90189582E084BD93E095BD9AEF97BD62
:102DD00080936E0008952FB7F894809131029091FE
:102DE0003202A0913302B09134022FBF0895CF92E6
:102DF000DF92EF92FF920F931F932FB7F8944091B9
:102E000031025091320260913302709134022FBF2F
:102E10006A017B01EE24FF248C0130E020E0C01623
:102E2000D106E206F30650F0481B590BCA011F9168
:102E30000F91FF90EF90DF90CF900895415051098E
:102E4000F3CF78941F920F920FB60F9211248F93A5
:102E50009F93AF93BF938091310290913202A091E2
:102E60003302B09134020196A11DB11D809331024D
:102E700090933202A0933302B0933402BF91AF918A
:102E80009F918F910F900FBE0F901F901895F894FF
:102E900081E08093E00080E28093D800E9ECF0E0EC
:102EA00010828FE19EE40197F1F700C000001DBA87
:102EB000109268001CBC10BE1FBA10927A001092CB
:102EC0006E0010926F0010927100109272001082CA
:102ED000ECEBF0E0108214B817B81AB81DB810BAAD
:102EE000108215B818B81BB81EB811BA0C94003F60
:102EF00008950E94CD15811102C00E94B3150E9451
:102F0000D815809300020E94E01590E0909336025D
:102F1000809335020E94DC15682F70E090E080E01D
:102F20000C94B0138091040280FF12C060910501DF
:102F300085E0689FB0011124759567957595679533
:102F400060387105A8F561157105A1F1862F089506
:102F500081FF09C06091050185E0689FB0011124DF
:102F600075956795EDCF82FF07C06091050185E0FB
:102F7000689FB0011124E4CF209105022223A9F01B
:102F8000909104016091050185E0689FB0011124D2
:102F90002917B0F6269FA001279F500D1124692FF5
:102FA00070E0CA010E94C220CBCF65E070E0CECFB6
:102FB0008FE7089581E008958091040280FF0CC09E
:102FC0006091030170E0759567957595679561153A
:102FD000710549F1862F089581FF06C060910301B4
:102FE00070E075956795F3CF6091030182FD0BC08A
:102FF000909105029923A1F0609102018091030153
:10300000961738F0682F70E06038710500F38FE78D
:103010000895899FC001112470E00E94C220F4CF5E
:1030200061E070E0D7CF81E00895803F31F40E94E5
:1030300092178195809308020895813F19F40E94A8
:103040009217F8CF823F31F40E94921781958093B6
:1030500007020895833F19F40E949217F8CF893F21
:1030600029F40E94DC178093090208958A3F21F415
:103070000E94DC178195F7CF8B3F31F40E94DC175B
:10308000819580930A0208958C3F19F40E94DC1701
:10309000F8CF843F31F4809106028160809306026C
:1030A0000895853F21F4809106028260F7CF863F24
:1030B00021F4809106028460F1CF873F21F4809152
:1030C00006028860EBCF883F21F480910602806180
:1030D000E5CF8D3F31F4809104028160809304023A
:1030E00008958E3F21F4809104028260F7CF8F3FD4
:1030F000B9F7809104028460F1CF803FC1F48091E0
:10310000080287FD109208028091070281110EC00B
:103110008091080281110AC080910902811106C0C4
:1031200080910A02811102C0109205020895813F28
:1031300029F48091080218162CF3E6CF909107022B
:10314000823F29F497FFE0CF10920702DDCF833F43
:1031500019F41916CCF3D8CF893F39F480910902BC
:10316000181694F610920902CFCF8A3F29F4809165
:10317000090287FFC9CFF6CF8B3F39F480910A024D
:1031800087FFC2CF10920A02BFCF8C3F29F48091F3
:103190000A021816BCF3B8CF843F31F480910602BE
:1031A0008E7F80930602B0CF853F21F48091060286
:1031B0008D7FF7CF863F21F4809106028B7FF1CF80
:1031C000873F21F480910602877FEBCF883F21F46F
:1031D000809106028F7EE5CF8D3F31F4809104020D
:1031E0008E7F8093040290CF8E3F21F48091040261
:1031F0008D7FF7CF8F3F09F087CF809104028B7FBF
:10320000F0CF86E092E00E94C20A0E94EB169093F3
:1032100003028093020208951F93CF93DF9380915E
:103220000202909103020E94F716AC0190910502F0
:103230002091060130E0911106C0209107018AE03B
:10324000289F900111244217530780F080910702B4
:1032500010910802D0910902C0910A0281110AC09E
:10326000111161C0D1115FC0C1115DC0DF91CF915B
:103270001F9108959F3F19F09F5F909305021816C4
:1032800024F40E949217809307028091070287FF1F
:1032900005C00E949217819580930702111624F4AD
:1032A0000E949217809308028091080287FF05C050
:1032B0000E9492178195809308024091070244234F
:1032C00079F030910802332359F025EB4203A00135
:1032D0001124509307023203900111243093080205
:1032E0001D1624F40E94DC178093090280910902C4
:1032F00087FF05C00E94DC178195809309021C1688
:1033000024F40E94DC1780930A0280910A0287FF4E
:1033100005C00E94DC17819580930A02DF91CF914E
:103320001F910C9401199F3F09F0A6CFB7CF85E0FC
:10333000E6E0F2E0DF011D928A95E9F710920502BE
:1033400010920402089580912B0208950F931F9309
:10335000CF93DF9300D01F92CDB7DEB78C010E94D0
:10336000131C823011F0843019F583E089831B83AC
:103370000A838093E9008FEF9091E800815095FDDA
:1033800006C095ED9A95F1F700008111F5CF809177
:10339000E80085FF0DC050E040E063E070E0CE0142
:1033A00001960E94301C8091E8008E778093E8009F
:1033B0000F900F900F90DF91CF911F910F91089573
:1033C000CF93DF9300D01F92CDB7DEB720913B02A1
:1033D000243031F522E02983805891099B838A8328
:1033E00083E08093E9008FEF9091E800815095FD94
:1033F00006C095ED9A95F1F700008111F5CF809107
:10340000E80085FF0DC050E040E063E070E0CE01D1
:1034100001960E94301C8091E8008E778093E8002E
:103420000F900F900F90DF91CF910895CF93DF937E
:10343000EC010E94131C823011F08430F9F482E018
:103440008093E9008FEF9091E800815095FD06C0D0
:1034500095ED9A95F1F700008111F5CF8091E80084
:1034600085FF0CC050E040E065E070E0CE010E94B6
:10347000301C8091E8008E778093E800DF91CF9137
:103480000895CF93DF93EC010E94131C823011F05A
:103490008430F9F4809112018823F1F08091350293
:1034A00087FF1AC084E08093E9008FEF9091E800D5
:1034B000815095FD06C095E19A95F1F700008111C4
:1034C000F5CF8091E80050E040E060E270E085FDDB
:1034D0001AC0DF91CF91089581E08093E9008FEFCA
:1034E0009091E800815095FD06C095ED9A95F1F711
:1034F00000008111F5CF8091E80085FFEACF50E010
:1035000040E068E070E0CE010E94301C8091E8004D
:103510008E778093E80080E2FE01ABE0B2E001909C
:103520000D928A95E1F7D5CF80913A02811109C0B9
:103530000E94C01D0E941D1E8091E2008460809345
:10354000E200089510923A020895089508950C94A7
:10355000B11642E061EC81E00E943E1D42E061EC68
:1035600082E00E943E1D42E061EC83E00E943E1D2D
:1035700042E261EC84E00C943E1D80913D02833078
:1035800009F455C030F4813071F1823009F491C0F2
:1035900008958A3009F47DC08B3009F463C0893006
:1035A00009F044C080913C02813209F03FC0809113
:1035B000400290914102009711F00397B9F5809174
:1035C000E800877F8093E8008091E80082FF2AC0AE
:1035D0008091F10080932B028091E8008B7780939B
:1035E000E8000C94721D80913C02813AF9F48091BC
:1035F000E800877F8093E80080914002909141022B
:10360000892B61F460E28BE092E070E00E947F1C05
:103610008091E8008B778093E800089560E090E067
:1036200080E0F3CF80913B028111CECF089580914D
:103630003C02813AD9F78091400290914102892B56
:10364000A9F78091E800877F8093E8008091E800E7
:1036500080FFFCCF809112018093F1008091E800FF
:103660008E77BDCF80913C02813201F7809140027C
:1036700090914102892BD1F68091E800877F809359
:10368000E8000E94721D80913E02809312010C940A
:10369000C10F80913C02813249F68091E800877F1A
:1036A0008093E8000E94721D80913F0280932C025B
:1036B000089580913C02813A09F0B8CF8091E800EA
:1036C000877F8093E8008091E80080FFFCCF8091A5
:1036D0002C02C2CF84B7877F84BF0FB6F894A89519
:1036E00080916000886180936000109260000FBE3E
:1036F00080E880936100109261000E94FA0A0E94A3
:10370000C01D0E941D1E8091E20084608093E20033
:1037100078940E94A6200E94FE0A88E091E00E9410
:10372000A60A80913B02853019F00E94040BF9CF64
:103730000E94681680913902882399F30E94971697
:10374000882379F30E941A1CECCF0C94A71B292F15
:1037500033272330310579F158F421303105F1F068
:103760002230310519F190E080E030E020E01AC00D
:1037700021323105C9F122323105A9F764307105D2
:1037800090F7FB01EE0FFF1FE25DFE4F20813181BC
:10379000665D7E4FFB01808190E004C082E190E095
:1037A0002DE336E0FA013183208308958DE690E021
:1037B00020ED35E0F7CF99278130910579F040F081
:1037C0008230910571F0039771F6E8E9F5E002C0E7
:1037D000ECECF5E0849190E09F01E4CFE2EBF5E0C2
:1037E000F9CFEEE9F5E0F6CF6430710508F0BBCF14
:1037F000660F771FFB01EA5CFE4F2081318189E073
:1038000090E0D0CF0895CF93C82F0E94021CC093A0
:103810002D02CF91089580913B02843011F081E018
:10382000089582E0089580912D02811102C00C94C8
:103830000B1C089580E189BD82E189BD09B400FEB9
:10384000FDCF8091D8008F7D8093D8008091E000DB
:1038500082608093E0008091E00081FDFCCF0895BC
:10386000AF92BF92CF92DF92FF920F931F93CF93AD
:10387000DF936C01EB018A010E94911DF82E8111EA
:1038800023C00115110539F0F80180819181C81B11
:10389000D90BC80ED91EB12CA12C2097A9F080916C
:1038A000E80085FD22C08091E8008E778093E800D3
:1038B00001151105A1F0F80180819181A80EB91EB2
:1038C000B182A08285E0F82E8F2DDF91CF911F91DC
:1038D0000F91FF90DF90CF90BF90AF9008950E941E
:1038E000911D8823D1F2F82EEFCFF60181916F015F
:1038F0008093F1002197FFEFAF1ABF0ACECFFC01F2
:10390000809142029091430286179707A0F06115BB
:10391000710529F49091E8009E779093E80090E07B
:103920006115710551F4911108C08091E80082FF82
:1039300035C080E00895BC01F2CF80913B0288231E
:10394000C9F18530C9F18091E80083FD31C08091D3
:10395000E80082FDEACF8091E80080FFE1CF20916E
:10396000F3008091F200322F282F6115710519F0B4
:103970002830310558F091E02830310509F090E009
:103980002091E8002E772093E800CACF81918093A0
:10399000F100615071092F5F3F4FE7CF80913B02EB
:1039A000882341F0853041F08091E80083FFBDCF4E
:1039B00081E0089582E0089583E00895FC018091FC
:1039C00042029091430286179707A0F06115710596
:1039D00029F48091E8008E778093E80090E06115EB
:1039E000710551F4911108C08091E80082FF36C042
:1039F00080E00895BC01F2CF80913B028823D1F191
:103A00008530D1F18091E80083FD32C08091E800DB
:103A100082FDEACF8091E80080FFE1CF2091F300A2
:103A20008091F200322F282F6115710519F028308E
:103A3000310558F091E02830310509F090E080918F
:103A4000E8008E778093E800CACF84918093F100DC
:103A50003196615071092F5F3F4FE6CF80913B0255
:103A6000882341F0853041F08091E80083FFBCCF8E
:103A700081E0089582E0089583E00895982F9730BB
:103A800028F08F708093E90081E008959093E90019
:103A9000242F762F50E0981731F07091EC00209190
:103AA000ED005091F00021FD02C09F5FE8CF309102
:103AB000EB003E7F3093EB003091ED003D7F309383
:103AC000ED003091EB0031603093EB007093EC002F
:103AD0002093ED005093F0002091EE0027FDE5CFFC
:103AE00080E0089580913C0287FF13C08091E80038
:103AF00082FF06C08091E8008B778093E80004C0C5
:103B000080913B028111F2CF089580913B0288237E
:103B1000D9F38091E80080FFF8CF8091E8008E779C
:103B2000ECCF2091E4003091E50085E69091EC0027
:103B300090FF06C09091E80090FF06C080E00895D5
:103B40009091E80092FDFACF90913B02992391F079
:103B5000953091F09091EB0095FD10C04091E400FC
:103B60005091E5002417350709F381509A01F1F6C9
:103B700084E0089582E0089583E0089581E0089547
:103B80000E942E1E0E94361EE0EEF0E080818160D1
:103B90008083E8EDF0E080818F77808319BCA7ED0A
:103BA000B0E08C918E7F8C9380818F7E8083109289
:103BB0003A0208950F931F93CF93DF930E942E1E16
:103BC0000E94361EC8EDD0E088818F778883888177
:103BD0008068888388818F7D888319BC10923B021E
:103BE00010923702109239021092380200EE10E063
:103BF000F80180818B7F808388818160888342E0A7
:103C000060E080E00E943E1DE1EEF0E080818E7F6A
:103C10008083E2EEF0E08081816080838081886033
:103C20008083F80180818E7F808388818061888392
:103C3000DF91CF911F910F910895E8EDF0E0808121
:103C40008F7E8083E7EDF0E080818160808384E077
:103C500082BF81E080933A020C94DA1DE8EDF0E037
:103C600080818E7F80831092E20008951092DA00A6
:103C70001092E10008951F920F920FB60F92112437
:103C80002F933F934F935F936F937F938F939F9364
:103C9000AF93BF93EF93FF938091E10082FF0BC03E
:103CA0008091E20082FF07C08091E1008B7F8093CA
:103CB000E1000E94A5208091DA0080FF19C0809168
:103CC000D80080FF15C08091DA008E7F8093DA00E3
:103CD0008091D90080FF94C080E189BD82E189BDD7
:103CE00009B400FEFDCF81E080933B020E94941A4C
:103CF0008091E10080FF19C08091E20080FF15C033
:103D00008091E2008E7F8093E2008091E2008061EA
:103D10008093E2008091D80080628093D80019BC23
:103D200085E080933B020E94A61A8091E10084FF07
:103D300029C08091E20084FF25C080E189BD82E135
:103D400089BD09B400FEFDCF8091D8008F7D80939E
:103D5000D8008091E1008F7E8093E1008091E200A5
:103D60008F7E8093E2008091E20081608093E20088
:103D700080913702882309F449C084E080933B0294
:103D80000E94A71A8091E10083FF29C08091E20080
:103D900083FF25C08091E100877F8093E10082E06E
:103DA00080933B02109237028091E1008E7F8093D6
:103DB000E1008091E2008E7F8093E2008091E2003A
:103DC00080618093E20042E060E080E00E943E1D5E
:103DD0008091F00088608093F0000E94A51AFF9106
:103DE000EF91BF91AF919F918F917F916F915F9173
:103DF0004F913F912F910F900FBE0F901F901895EC
:103E000019BC10923B020E94A21A72CF8091E3006B
:103E100087FD02C081E0B2CF83E0B0CF1F920F9246
:103E20000FB60F9211242F933F934F935F936F938D
:103E30007F938F939F93AF93BF93CF93EF93FF9312
:103E4000C091E900CF708091EC001092E900809160
:103E5000F000877F8093F00078940E944A1F1092B0
:103E6000E9008091F00088608093F000C093E90041
:103E7000FF91EF91CF91BF91AF919F918F917F91E2
:103E80006F915F914F913F912F910F900FBE0F90C7
:103E90001F9018951F93CF93DF93CDB7DEB7AA97E6
:103EA0000FB6F894DEBF0FBECDBFECE3F2E0809119
:103EB000F100819322E0E434F207C9F70E94BD1AB1
:103EC0008091E80083FF44C080913C0290913D02C4
:103ED0009A3008F03DC0E92FF0E0EF58F04E0C9416
:103EE000D6207B1FA11FA81FA11FA81FFF1F2120D5
:103EF000A81F78208520803889F0823849F5809184
:103F000040028F70873020F58093E9008091EB00AC
:103F100085FB882780F91092E90006C0809138025D
:103F200090913902911182609091E800977F90936F
:103F3000E8008093F1001092F1008091E8008E7704
:103F40002DC0282F2D7F21F48823D1F0823059F104
:103F50008091E80083FF0AC08091E800877F80930A
:103F6000E8008091EB0080628093EB00AA960FB688
:103F7000F894DEBF0FBECDBFDF91CF911F910895A2
:103F800080913E02813021F7933009F080E08093E8
:103F900039021092E9008091E800877F8093E80061
:103FA0000E94721DD5CF80913E028111F2CF809187
:103FB00040028F702FEF280F263050F68093E900D3
:103FC0002091EB0020FFE5CF933031F48091EB009E
:103FD00080628093EB00DDCF9091EB009061909335
:103FE000EB0021E030E001C0220F8A95EAF7209330
:103FF000EA001092EA008091EB008860EACF81111C
:10400000A7CF10913E021F778091E3008078812B2B
:104010008093E3008091E800877F8093E8000E940E
:10402000721D8091E80080FFFCCF8091E3008068E2
:104030008093E30083E0111101C082E080933B0292
:1040400087CF8058823008F083CF80913E029091D4
:104050003F028C3D23E09207A1F583E08A838AE248
:1040600089834FB7F894DE01139620E03EE051E2D9
:10407000E32FF0E050935700E49120FF03C0E29556
:10408000EF703F5FEF708E2F90E0EA30C0F0C79680
:104090008D939D932F5F243159F74FBF8091E80096
:1040A000877F8093E8006AE270E0CE0101960E946B
:1040B0007F1C8091E8008B778093E80049CFC09601
:1040C000E7CF6091400270914102AE014F5F5F4FB8
:1040D0000E94A51BBC01892B09F43ACF9091E800FE
:1040E000977F9093E80089819A810E94DE1CE1CF3E
:1040F000803809F02DCF8091E800877F8093E80019
:10410000809137028093F10018CF811121CF9091D7
:104110003E02923008F01CCF8091E800877F8093A8
:10412000E800909337020E94721D80913702882325
:1041300031F084E080933B020E94A91A09CF80915C
:10414000E30087FDF6CF81E0F5CF0895CF9380910E
:104150003B02882399F0C091E900CF708091EC0078
:1041600080FD0EC080E0C82B1092E9008091E8002D
:1041700083FD0E944A1FCF70C093E900CF9108953C
:1041800080E8F1CF97FB072E16F4009407D077FD57
:1041900009D00E94DC2007FC05D03EF49095819563
:1041A0009F4F0895709561957F4F0895EE0FFF1F03
:1041B0000590F491E02D0994AA1BBB1B51E107C0A7
:1041C000AA1FBB1FA617B70710F0A61BB70B881FA7
:1041D000991F5A95A9F780959095BC01CD01089536
:1041E000F999FECF92BD81BDF89A992780B50895BF
:1041F000A8E1B0E042E050E00C941821262FF99994
:10420000FECF92BD81BDF89A019700B4021639F035
:104210001FBA20BD0FB6F894FA9AF99A0FBE089506
:104220000196272F0E94FF200C94FE20DC01CB0179
:10423000FC01F999FECF06C0F2BDE1BDF89A3196B6
:1042400000B40D9241505040B8F70895F894FFCF54
:10425000DD012808140A321EA319411A161AE019A2
:10426000A6190133323130F4F1F0379091959497DB
:1042700034676693923536F7F6F5404D36390B07BD
:0E428000BE0688064F06E205FB0514062D0655
:00000001FF
